{
  "contractName": "Robot",
  "abi": [
    {
      "inputs": [],
      "stateMutability": "nonpayable",
      "type": "constructor"
    },
    {
      "inputs": [],
      "name": "admin",
      "outputs": [
        {
          "internalType": "address",
          "name": "",
          "type": "address"
        }
      ],
      "stateMutability": "view",
      "type": "function",
      "constant": true
    },
    {
      "inputs": [
        {
          "internalType": "address",
          "name": "",
          "type": "address"
        },
        {
          "internalType": "uint256",
          "name": "",
          "type": "uint256"
        }
      ],
      "name": "allproposals",
      "outputs": [
        {
          "internalType": "uint256",
          "name": "",
          "type": "uint256"
        }
      ],
      "stateMutability": "view",
      "type": "function",
      "constant": true
    },
    {
      "inputs": [],
      "name": "customerCount",
      "outputs": [
        {
          "internalType": "uint256",
          "name": "",
          "type": "uint256"
        }
      ],
      "stateMutability": "view",
      "type": "function",
      "constant": true
    },
    {
      "inputs": [
        {
          "internalType": "address",
          "name": "",
          "type": "address"
        },
        {
          "internalType": "uint256",
          "name": "",
          "type": "uint256"
        }
      ],
      "name": "interests",
      "outputs": [
        {
          "internalType": "string",
          "name": "",
          "type": "string"
        }
      ],
      "stateMutability": "view",
      "type": "function",
      "constant": true
    },
    {
      "inputs": [
        {
          "internalType": "uint256",
          "name": "",
          "type": "uint256"
        }
      ],
      "name": "latestXSDFile1",
      "outputs": [
        {
          "internalType": "uint256",
          "name": "id",
          "type": "uint256"
        },
        {
          "internalType": "string",
          "name": "manmachineinterface",
          "type": "string"
        },
        {
          "internalType": "string",
          "name": "programmingflexibility",
          "type": "string"
        },
        {
          "internalType": "string",
          "name": "stability",
          "type": "string"
        },
        {
          "internalType": "string",
          "name": "compliavce",
          "type": "string"
        }
      ],
      "stateMutability": "view",
      "type": "function",
      "constant": true
    },
    {
      "inputs": [
        {
          "internalType": "uint256",
          "name": "",
          "type": "uint256"
        }
      ],
      "name": "latestXSDFile2",
      "outputs": [
        {
          "internalType": "uint256",
          "name": "id",
          "type": "uint256"
        },
        {
          "internalType": "string",
          "name": "processor",
          "type": "string"
        },
        {
          "internalType": "string",
          "name": "typeofrobot",
          "type": "string"
        },
        {
          "internalType": "string",
          "name": "purchasecode",
          "type": "string"
        },
        {
          "internalType": "string",
          "name": "deliverytime",
          "type": "string"
        }
      ],
      "stateMutability": "view",
      "type": "function",
      "constant": true
    },
    {
      "inputs": [
        {
          "internalType": "uint256",
          "name": "",
          "type": "uint256"
        },
        {
          "internalType": "uint256",
          "name": "",
          "type": "uint256"
        }
      ],
      "name": "objectivedata",
      "outputs": [
        {
          "internalType": "uint256",
          "name": "",
          "type": "uint256"
        }
      ],
      "stateMutability": "view",
      "type": "function",
      "constant": true
    },
    {
      "inputs": [
        {
          "internalType": "uint256",
          "name": "",
          "type": "uint256"
        }
      ],
      "name": "ontologiestoadmin",
      "outputs": [
        {
          "internalType": "uint256",
          "name": "id",
          "type": "uint256"
        },
        {
          "internalType": "address",
          "name": "proposer",
          "type": "address"
        },
        {
          "internalType": "uint256",
          "name": "sendtoAll",
          "type": "uint256"
        },
        {
          "internalType": "string",
          "name": "descproposed",
          "type": "string"
        },
        {
          "internalType": "string",
          "name": "justification",
          "type": "string"
        },
        {
          "internalType": "string",
          "name": "startdate",
          "type": "string"
        },
        {
          "internalType": "string",
          "name": "enddate",
          "type": "string"
        }
      ],
      "stateMutability": "view",
      "type": "function",
      "constant": true
    },
    {
      "inputs": [],
      "name": "ontologiestoadminCount",
      "outputs": [
        {
          "internalType": "uint256",
          "name": "",
          "type": "uint256"
        }
      ],
      "stateMutability": "view",
      "type": "function",
      "constant": true
    },
    {
      "inputs": [
        {
          "internalType": "uint256",
          "name": "",
          "type": "uint256"
        }
      ],
      "name": "ontology",
      "outputs": [
        {
          "internalType": "uint256",
          "name": "id",
          "type": "uint256"
        },
        {
          "internalType": "address",
          "name": "proposer",
          "type": "address"
        },
        {
          "internalType": "uint256",
          "name": "totalapproval",
          "type": "uint256"
        },
        {
          "internalType": "string",
          "name": "descproposed",
          "type": "string"
        },
        {
          "internalType": "string",
          "name": "justification",
          "type": "string"
        },
        {
          "internalType": "string",
          "name": "stdate",
          "type": "string"
        },
        {
          "internalType": "string",
          "name": "enddate",
          "type": "string"
        }
      ],
      "stateMutability": "view",
      "type": "function",
      "constant": true
    },
    {
      "inputs": [],
      "name": "ontologyCount",
      "outputs": [
        {
          "internalType": "uint256",
          "name": "",
          "type": "uint256"
        }
      ],
      "stateMutability": "view",
      "type": "function",
      "constant": true
    },
    {
      "inputs": [
        {
          "internalType": "address",
          "name": "",
          "type": "address"
        }
      ],
      "name": "rated",
      "outputs": [
        {
          "internalType": "string",
          "name": "",
          "type": "string"
        }
      ],
      "stateMutability": "view",
      "type": "function",
      "constant": true
    },
    {
      "inputs": [
        {
          "internalType": "address",
          "name": "",
          "type": "address"
        },
        {
          "internalType": "uint256",
          "name": "",
          "type": "uint256"
        }
      ],
      "name": "ratedotnot",
      "outputs": [
        {
          "internalType": "uint256",
          "name": "",
          "type": "uint256"
        }
      ],
      "stateMutability": "view",
      "type": "function",
      "constant": true
    },
    {
      "inputs": [
        {
          "internalType": "uint256",
          "name": "",
          "type": "uint256"
        }
      ],
      "name": "roboratings",
      "outputs": [
        {
          "internalType": "uint256",
          "name": "id",
          "type": "uint256"
        },
        {
          "internalType": "uint256",
          "name": "totalCustomersRated",
          "type": "uint256"
        },
        {
          "internalType": "uint256",
          "name": "totalRatings",
          "type": "uint256"
        }
      ],
      "stateMutability": "view",
      "type": "function",
      "constant": true
    },
    {
      "inputs": [
        {
          "internalType": "uint256",
          "name": "",
          "type": "uint256"
        }
      ],
      "name": "robotgeneralattributes",
      "outputs": [
        {
          "internalType": "uint256",
          "name": "id",
          "type": "uint256"
        },
        {
          "internalType": "string",
          "name": "processor",
          "type": "string"
        },
        {
          "internalType": "string",
          "name": "typeofrobot",
          "type": "string"
        }
      ],
      "stateMutability": "view",
      "type": "function",
      "constant": true
    },
    {
      "inputs": [
        {
          "internalType": "uint256",
          "name": "",
          "type": "uint256"
        }
      ],
      "name": "robotgeneralinformations",
      "outputs": [
        {
          "internalType": "uint256",
          "name": "id",
          "type": "uint256"
        },
        {
          "internalType": "string",
          "name": "purpose1",
          "type": "string"
        },
        {
          "internalType": "string",
          "name": "purpose2",
          "type": "string"
        },
        {
          "internalType": "string",
          "name": "robotname",
          "type": "string"
        },
        {
          "internalType": "string",
          "name": "proposed",
          "type": "string"
        },
        {
          "internalType": "string",
          "name": "ROAapproved",
          "type": "string"
        },
        {
          "internalType": "uint256",
          "name": "rating",
          "type": "uint256"
        },
        {
          "internalType": "uint256",
          "name": "totalapproval",
          "type": "uint256"
        },
        {
          "internalType": "string",
          "name": "descproposed",
          "type": "string"
        }
      ],
      "stateMutability": "view",
      "type": "function",
      "constant": true
    },
    {
      "inputs": [
        {
          "internalType": "uint256",
          "name": "",
          "type": "uint256"
        }
      ],
      "name": "robotobjectiveattributes",
      "outputs": [
        {
          "internalType": "uint256",
          "name": "id",
          "type": "uint256"
        },
        {
          "internalType": "string",
          "name": "purchasecode",
          "type": "string"
        },
        {
          "internalType": "string",
          "name": "deliverytime",
          "type": "string"
        }
      ],
      "stateMutability": "view",
      "type": "function",
      "constant": true
    },
    {
      "inputs": [
        {
          "internalType": "uint256",
          "name": "",
          "type": "uint256"
        }
      ],
      "name": "robotowners",
      "outputs": [
        {
          "internalType": "address",
          "name": "",
          "type": "address"
        }
      ],
      "stateMutability": "view",
      "type": "function",
      "constant": true
    },
    {
      "inputs": [
        {
          "internalType": "uint256",
          "name": "",
          "type": "uint256"
        }
      ],
      "name": "robotsubjectattributes",
      "outputs": [
        {
          "internalType": "uint256",
          "name": "id",
          "type": "uint256"
        },
        {
          "internalType": "string",
          "name": "manmachineinterface",
          "type": "string"
        },
        {
          "internalType": "string",
          "name": "programmingflexibility",
          "type": "string"
        },
        {
          "internalType": "string",
          "name": "stability",
          "type": "string"
        },
        {
          "internalType": "string",
          "name": "compliavce",
          "type": "string"
        }
      ],
      "stateMutability": "view",
      "type": "function",
      "constant": true
    },
    {
      "inputs": [
        {
          "internalType": "address",
          "name": "",
          "type": "address"
        }
      ],
      "name": "roles",
      "outputs": [
        {
          "internalType": "string",
          "name": "",
          "type": "string"
        }
      ],
      "stateMutability": "view",
      "type": "function",
      "constant": true
    },
    {
      "inputs": [
        {
          "internalType": "uint256",
          "name": "",
          "type": "uint256"
        }
      ],
      "name": "subjectivedata",
      "outputs": [
        {
          "internalType": "string",
          "name": "",
          "type": "string"
        }
      ],
      "stateMutability": "view",
      "type": "function",
      "constant": true
    },
    {
      "inputs": [],
      "name": "supplierCount",
      "outputs": [
        {
          "internalType": "uint256",
          "name": "",
          "type": "uint256"
        }
      ],
      "stateMutability": "view",
      "type": "function",
      "constant": true
    },
    {
      "inputs": [],
      "name": "totalRobots",
      "outputs": [
        {
          "internalType": "uint256",
          "name": "",
          "type": "uint256"
        }
      ],
      "stateMutability": "view",
      "type": "function",
      "constant": true
    },
    {
      "inputs": [],
      "name": "xsdCount",
      "outputs": [
        {
          "internalType": "uint256",
          "name": "",
          "type": "uint256"
        }
      ],
      "stateMutability": "view",
      "type": "function",
      "constant": true
    },
    {
      "inputs": [
        {
          "internalType": "uint256",
          "name": "_id",
          "type": "uint256"
        }
      ],
      "name": "getObjectiveData",
      "outputs": [
        {
          "internalType": "uint256[]",
          "name": "",
          "type": "uint256[]"
        }
      ],
      "stateMutability": "view",
      "type": "function",
      "constant": true
    },
    {
      "inputs": [
        {
          "internalType": "string[]",
          "name": "_interest",
          "type": "string[]"
        }
      ],
      "name": "addinterests",
      "outputs": [],
      "stateMutability": "nonpayable",
      "type": "function"
    },
    {
      "inputs": [
        {
          "internalType": "address",
          "name": "a",
          "type": "address"
        }
      ],
      "name": "getinterests",
      "outputs": [
        {
          "internalType": "string[]",
          "name": "",
          "type": "string[]"
        }
      ],
      "stateMutability": "view",
      "type": "function",
      "constant": true
    },
    {
      "inputs": [
        {
          "internalType": "string",
          "name": "_role",
          "type": "string"
        }
      ],
      "name": "registerRoles",
      "outputs": [],
      "stateMutability": "nonpayable",
      "type": "function"
    },
    {
      "inputs": [
        {
          "internalType": "string",
          "name": "_p1",
          "type": "string"
        },
        {
          "internalType": "string",
          "name": "_p2",
          "type": "string"
        },
        {
          "internalType": "string",
          "name": "_rname",
          "type": "string"
        },
        {
          "internalType": "string",
          "name": "_sub",
          "type": "string"
        },
        {
          "internalType": "uint256[]",
          "name": "_obj",
          "type": "uint256[]"
        },
        {
          "internalType": "uint256",
          "name": "_pscore",
          "type": "uint256"
        }
      ],
      "name": "addNewRobot",
      "outputs": [],
      "stateMutability": "nonpayable",
      "type": "function"
    },
    {
      "inputs": [
        {
          "internalType": "uint256",
          "name": "i",
          "type": "uint256"
        },
        {
          "internalType": "string",
          "name": "_startdate",
          "type": "string"
        },
        {
          "internalType": "string",
          "name": "_enddate",
          "type": "string"
        }
      ],
      "name": "updateOntology",
      "outputs": [],
      "stateMutability": "nonpayable",
      "type": "function"
    },
    {
      "inputs": [
        {
          "internalType": "uint256",
          "name": "i",
          "type": "uint256"
        }
      ],
      "name": "deleteOntology",
      "outputs": [],
      "stateMutability": "nonpayable",
      "type": "function"
    },
    {
      "inputs": [
        {
          "internalType": "string",
          "name": "_desc",
          "type": "string"
        },
        {
          "internalType": "string",
          "name": "_justification",
          "type": "string"
        }
      ],
      "name": "updateOntologyToAdmin",
      "outputs": [],
      "stateMutability": "nonpayable",
      "type": "function"
    },
    {
      "inputs": [
        {
          "internalType": "uint256",
          "name": "id",
          "type": "uint256"
        }
      ],
      "name": "acceptProposal",
      "outputs": [],
      "stateMutability": "nonpayable",
      "type": "function"
    },
    {
      "inputs": [
        {
          "internalType": "uint256",
          "name": "id",
          "type": "uint256"
        }
      ],
      "name": "rejectProposal",
      "outputs": [],
      "stateMutability": "nonpayable",
      "type": "function"
    },
    {
      "inputs": [
        {
          "internalType": "uint256[]",
          "name": "ratings",
          "type": "uint256[]"
        },
        {
          "internalType": "uint256",
          "name": "count",
          "type": "uint256"
        }
      ],
      "name": "updateRatings",
      "outputs": [],
      "stateMutability": "nonpayable",
      "type": "function"
    },
    {
      "inputs": [
        {
          "internalType": "string",
          "name": "_mm",
          "type": "string"
        },
        {
          "internalType": "string",
          "name": "_pf",
          "type": "string"
        },
        {
          "internalType": "string",
          "name": "_st",
          "type": "string"
        },
        {
          "internalType": "string",
          "name": "_cp",
          "type": "string"
        },
        {
          "internalType": "string",
          "name": "_prc",
          "type": "string"
        },
        {
          "internalType": "string",
          "name": "_type",
          "type": "string"
        },
        {
          "internalType": "string",
          "name": "_pc",
          "type": "string"
        },
        {
          "internalType": "string",
          "name": "_pt",
          "type": "string"
        }
      ],
      "name": "addtoXSDFile",
      "outputs": [],
      "stateMutability": "nonpayable",
      "type": "function"
    },
    {
      "inputs": [
        {
          "internalType": "uint256",
          "name": "id",
          "type": "uint256"
        }
      ],
      "name": "addtoXSDFilebyOntology",
      "outputs": [],
      "stateMutability": "nonpayable",
      "type": "function"
    },
    {
      "inputs": [
        {
          "internalType": "uint256[]",
          "name": "ratings",
          "type": "uint256[]"
        },
        {
          "internalType": "uint256[]",
          "name": "robos",
          "type": "uint256[]"
        }
      ],
      "name": "addRatingsOLD",
      "outputs": [],
      "stateMutability": "nonpayable",
      "type": "function"
    },
    {
      "inputs": [
        {
          "internalType": "uint256[]",
          "name": "ratings",
          "type": "uint256[]"
        },
        {
          "internalType": "uint256[]",
          "name": "robos",
          "type": "uint256[]"
        }
      ],
      "name": "addRatings",
      "outputs": [],
      "stateMutability": "nonpayable",
      "type": "function"
    }
  ],
  "bytecode": "0x6080604052600080556000600155600060025560006003556000600455600060055534801561002d57600080fd5b5033600660006101000a81548173ffffffffffffffffffffffffffffffffffffffff021916908373ffffffffffffffffffffffffffffffffffffffff1602179055506152368061007e6000396000f3fe608060405234801561001057600080fd5b506004361061023d5760003560e01c80637c85ce161161013b578063b6fec82d116100b8578063d3768f231161007c578063d3768f231461077e578063e2082a831461079a578063e53b2263146107b8578063f5fdcdf6146107e8578063f851a440146108185761023d565b8063b6fec82d146106b0578063b90d4e96146106e0578063ba5a4eab146106fc578063bc28d87814610732578063cb3cf60e1461074e5761023d565b80638f9bb780116100ff5780638f9bb780146105fa57806395372f091461062a5780639757e8a3146106465780639937464214610664578063ae1e4943146106945761023d565b80637c85ce161461052457806386658d1b1461055a5780638d5d09391461058c5780638ed783e4146105aa5780638f30e9b2146105dc5761023d565b80634003c8a4116101c95780635f8412021161018d5780635f8412021461046857806360c5cc3a146104845780636e879f85146104a0578063731c64c0146104bc5780637b818928146104ec5761023d565b80634003c8a41461039a57806343ee7e39146103ca5780634c961570146103fe5780634fd7942b1461041c5780635a84a249146104385761023d565b8063140c6b9111610210578063140c6b91146102dc578063145696ba146102fa5780632847f4b21461032e5780632b643d931461034a5780633ca615581461037e5761023d565b806304f5ea45146102425780630a012a2f146102725780630eb2b87d1461028e5780630f6a1944146102c0575b600080fd5b61025c600480360381019061025791906149d1565b610836565b6040516102699190614cf0565b60405180910390f35b61028c600480360381019061028791906145f1565b610869565b005b6102a860048036038101906102a391906149d1565b6109a4565b6040516102b793929190614e17565b60405180910390f35b6102da60048036038101906102d5919061465d565b610afe565b005b6102e4611167565b6040516102f19190614d71565b60405180910390f35b610314600480360381019061030f91906149d1565b61116d565b604051610325959493929190614e5c565b60405180910390f35b610348600480360381019061034391906146f2565b611403565b005b610364600480360381019061035f91906149d1565b61156a565b604051610375959493929190614e5c565b60405180910390f35b610398600480360381019061039391906149fa565b611800565b005b6103b460048036038101906103af919061454b565b611b60565b6040516103c19190614d4f565b60405180910390f35b6103e460048036038101906103df91906149d1565b611c10565b6040516103f5959493929190614e5c565b60405180910390f35b610406611ea6565b6040516104139190614d71565b60405180910390f35b610436600480360381019061043191906149d1565b611eac565b005b610452600480360381019061044d919061454b565b611ecb565b60405161045f9190614d0b565b60405180910390f35b610482600480360381019061047d919061475e565b611ff3565b005b61049e600480360381019061049991906149d1565b6122ab565b005b6104ba60048036038101906104b591906149d1565b61275d565b005b6104d660048036038101906104d19190614574565b612e90565b6040516104e39190614d4f565b60405180910390f35b610506600480360381019061050191906149d1565b612f56565b60405161051b99989796959493929190614ecb565b60405180910390f35b61053e600480360381019061053991906149d1565b613334565b6040516105519796959493929190614d8c565b60405180910390f35b610574600480360381019061056f91906149d1565b6135f6565b60405161058393929190614f82565b60405180910390f35b610594613620565b6040516105a19190614d71565b60405180910390f35b6105c460048036038101906105bf91906149d1565b613626565b6040516105d393929190614e17565b60405180910390f35b6105e4613780565b6040516105f19190614d71565b60405180910390f35b610614600480360381019061060f91906149d1565b613786565b6040516106219190614d4f565b60405180910390f35b610644600480360381019061063f91906146b1565b613836565b005b61064e613951565b60405161065b9190614d71565b60405180910390f35b61067e6004803603810190610679919061454b565b613957565b60405161068b9190614d4f565b60405180910390f35b6106ae60048036038101906106a991906145f1565b613a07565b005b6106ca60048036038101906106c59190614a79565b613b21565b6040516106d79190614d71565b60405180910390f35b6106fa60048036038101906106f5919061485f565b613b4f565b005b610716600480360381019061071191906149d1565b613ce9565b6040516107299796959493929190614d8c565b60405180910390f35b61074c600480360381019061074791906149d1565b613fab565b005b61076860048036038101906107639190614574565b614004565b6040516107759190614d71565b60405180910390f35b610798600480360381019061079391906145b0565b614029565b005b6107a2614080565b6040516107af9190614d71565b60405180910390f35b6107d260048036038101906107cd9190614574565b614086565b6040516107df9190614d71565b60405180910390f35b61080260048036038101906107fd91906149d1565b6140ab565b60405161080f9190614d2d565b60405180910390f35b610820614116565b60405161082d9190614cf0565b60405180910390f35b60116020528060005260406000206000915054906101000a900473ffffffffffffffffffffffffffffffffffffffff1681565b60008090505b815181101561099f57600082828151811061088657fe5b60200260200101519050600084838151811061089e57fe5b602002602001015190506000600f600084815260200190815260200160002060020154905081810190506000600f6000858152602001908152602001600020600101549050600181019050604051806060016040528085815260200182815260200183815250600f60008681526020019081526020016000206000820151816000015560208201518160010155604082015181600201559050506001601060003373ffffffffffffffffffffffffffffffffffffffff1673ffffffffffffffffffffffffffffffffffffffff16815260200190815260200160002060008681526020019081526020016000208190555050505050808060010191505061086f565b505050565b600c602052806000526040600020600091509050806000015490806001018054600181600116156101000203166002900480601f016020809104026020016040519081016040528092919081815260200182805460018160011615610100020316600290048015610a565780601f10610a2b57610100808354040283529160200191610a56565b820191906000526020600020905b815481529060010190602001808311610a3957829003601f168201915b505050505090806002018054600181600116156101000203166002900480601f016020809104026020016040519081016040528092919081815260200182805460018160011615610100020316600290048015610af45780601f10610ac957610100808354040283529160200191610af4565b820191906000526020600020905b815481529060010190602001808311610ad757829003601f168201915b5050505050905083565b6001600081548092919060010191905055506000600190505b8181116110d9576060600760008381526020019081526020016000206001018054600181600116156101000203166002900480601f016020809104026020016040519081016040528092919081815260200182805460018160011615610100020316600290048015610bca5780601f10610b9f57610100808354040283529160200191610bca565b820191906000526020600020905b815481529060010190602001808311610bad57829003601f168201915b505050505090506060600760008481526020019081526020016000206002018054600181600116156101000203166002900480601f016020809104026020016040519081016040528092919081815260200182805460018160011615610100020316600290048015610c7d5780601f10610c5257610100808354040283529160200191610c7d565b820191906000526020600020905b815481529060010190602001808311610c6057829003601f168201915b505050505090506060600760008581526020019081526020016000206003018054600181600116156101000203166002900480601f016020809104026020016040519081016040528092919081815260200182805460018160011615610100020316600290048015610d305780601f10610d0557610100808354040283529160200191610d30565b820191906000526020600020905b815481529060010190602001808311610d1357829003601f168201915b505050505090506060600760008681526020019081526020016000206004018054600181600116156101000203166002900480601f016020809104026020016040519081016040528092919081815260200182805460018160011615610100020316600290048015610de35780601f10610db857610100808354040283529160200191610de3565b820191906000526020600020905b815481529060010190602001808311610dc657829003601f168201915b505050505090506060600760008781526020019081526020016000206005018054600181600116156101000203166002900480601f016020809104026020016040519081016040528092919081815260200182805460018160011615610100020316600290048015610e965780601f10610e6b57610100808354040283529160200191610e96565b820191906000526020600020905b815481529060010190602001808311610e7957829003601f168201915b50505050509050600060076000888152602001908152602001600020600601549050886001880381518110610ec757fe5b6020026020010151810190506000600760008981526020019081526020016000206007015490506060600760008a81526020019081526020016000206008018054600181600116156101000203166002900480601f016020809104026020016040519081016040528092919081815260200182805460018160011615610100020316600290048015610f9a5780601f10610f6f57610100808354040283529160200191610f9a565b820191906000526020600020905b815481529060010190602001808311610f7d57829003601f168201915b505050505090506040518061012001604052808a815260200189815260200188815260200187815260200186815260200185815260200184815260200183815260200182815250600760008b815260200190815260200160002060008201518160000155602082015181600101908051906020019061101a92919061413c565b50604082015181600201908051906020019061103792919061413c565b50606082015181600301908051906020019061105492919061413c565b50608082015181600401908051906020019061107192919061413c565b5060a082015181600501908051906020019061108e92919061413c565b5060c0820151816006015560e082015181600701556101008201518160080190805190602001906110c092919061413c565b5090505050505050505050508080600101915050610b17565b506040518060400160405280600181526020017f3100000000000000000000000000000000000000000000000000000000000000815250601360003373ffffffffffffffffffffffffffffffffffffffff1673ffffffffffffffffffffffffffffffffffffffff16815260200190815260200160002090805190602001906111629291906141bc565b505050565b60005481565b600d602052806000526040600020600091509050806000015490806001018054600181600116156101000203166002900480601f01602080910402602001604051908101604052809291908181526020018280546001816001161561010002031660029004801561121f5780601f106111f45761010080835404028352916020019161121f565b820191906000526020600020905b81548152906001019060200180831161120257829003601f168201915b505050505090806002018054600181600116156101000203166002900480601f0160208091040260200160405190810160405280929190818152602001828054600181600116156101000203166002900480156112bd5780601f10611292576101008083540402835291602001916112bd565b820191906000526020600020905b8154815290600101906020018083116112a057829003601f168201915b505050505090806003018054600181600116156101000203166002900480601f01602080910402602001604051908101604052809291908181526020018280546001816001161561010002031660029004801561135b5780601f106113305761010080835404028352916020019161135b565b820191906000526020600020905b81548152906001019060200180831161133e57829003601f168201915b505050505090806004018054600181600116156101000203166002900480601f0160208091040260200160405190810160405280929190818152602001828054600181600116156101000203166002900480156113f95780601f106113ce576101008083540402835291602001916113f9565b820191906000526020600020905b8154815290600101906020018083116113dc57829003601f168201915b5050505050905085565b6005600081548092919060010191905055506040518060e0016040528060055481526020013373ffffffffffffffffffffffffffffffffffffffff1681526020016000815260200183815260200182815260200160405180602001604052806000815250815260200160405180602001604052806000815250815250600a600060055481526020019081526020016000206000820151816000015560208201518160010160006101000a81548173ffffffffffffffffffffffffffffffffffffffff021916908373ffffffffffffffffffffffffffffffffffffffff16021790555060408201518160020155606082015181600301908051906020019061150b92919061413c565b50608082015181600401908051906020019061152892919061413c565b5060a082015181600501908051906020019061154592919061413c565b5060c082015181600601908051906020019061156292919061413c565b509050505050565b600e602052806000526040600020600091509050806000015490806001018054600181600116156101000203166002900480601f01602080910402602001604051908101604052809291908181526020018280546001816001161561010002031660029004801561161c5780601f106115f15761010080835404028352916020019161161c565b820191906000526020600020905b8154815290600101906020018083116115ff57829003601f168201915b505050505090806002018054600181600116156101000203166002900480601f0160208091040260200160405190810160405280929190818152602001828054600181600116156101000203166002900480156116ba5780601f1061168f576101008083540402835291602001916116ba565b820191906000526020600020905b81548152906001019060200180831161169d57829003601f168201915b505050505090806003018054600181600116156101000203166002900480601f0160208091040260200160405190810160405280929190818152602001828054600181600116156101000203166002900480156117585780601f1061172d57610100808354040283529160200191611758565b820191906000526020600020905b81548152906001019060200180831161173b57829003601f168201915b505050505090806004018054600181600116156101000203166002900480601f0160208091040260200160405190810160405280929190818152602001828054600181600116156101000203166002900480156117f65780601f106117cb576101008083540402835291602001916117f6565b820191906000526020600020905b8154815290600101906020018083116117d957829003601f168201915b5050505050905085565b6000600a600085815260200190815260200160002060010160009054906101000a900473ffffffffffffffffffffffffffffffffffffffff1690506060600a60008681526020019081526020016000206003018054600181600116156101000203166002900480601f0160208091040260200160405190810160405280929190818152602001828054600181600116156101000203166002900480156118e75780601f106118bc576101008083540402835291602001916118e7565b820191906000526020600020905b8154815290600101906020018083116118ca57829003601f168201915b505050505090506060600a60008781526020019081526020016000206004018054600181600116156101000203166002900480601f01602080910402602001604051908101604052809291908181526020018280546001816001161561010002031660029004801561199a5780601f1061196f5761010080835404028352916020019161199a565b820191906000526020600020905b81548152906001019060200180831161197d57829003601f168201915b505050505090506001600a60008881526020019081526020016000206002018190555084600a600088815260200190815260200160002060050190805190602001906119e79291906141bc565b5083600a60008881526020019081526020016000206006019080519060200190611a129291906141bc565b506004600081548092919060010191905055506040518060e0016040528060045481526020018473ffffffffffffffffffffffffffffffffffffffff16815260200160008152602001838152602001828152602001868152602001858152506009600060045481526020019081526020016000206000820151816000015560208201518160010160006101000a81548173ffffffffffffffffffffffffffffffffffffffff021916908373ffffffffffffffffffffffffffffffffffffffff160217905550604082015181600201556060820151816003019080519060200190611afd92919061413c565b506080820151816004019080519060200190611b1a92919061413c565b5060a0820151816005019080519060200190611b3792919061413c565b5060c0820151816006019080519060200190611b5492919061413c565b50905050505050505050565b60136020528060005260406000206000915090508054600181600116156101000203166002900480601f016020809104026020016040519081016040528092919081815260200182805460018160011615610100020316600290048015611c085780601f10611bdd57610100808354040283529160200191611c08565b820191906000526020600020905b815481529060010190602001808311611beb57829003601f168201915b505050505081565b6008602052806000526040600020600091509050806000015490806001018054600181600116156101000203166002900480601f016020809104026020016040519081016040528092919081815260200182805460018160011615610100020316600290048015611cc25780601f10611c9757610100808354040283529160200191611cc2565b820191906000526020600020905b815481529060010190602001808311611ca557829003601f168201915b505050505090806002018054600181600116156101000203166002900480601f016020809104026020016040519081016040528092919081815260200182805460018160011615610100020316600290048015611d605780601f10611d3557610100808354040283529160200191611d60565b820191906000526020600020905b815481529060010190602001808311611d4357829003601f168201915b505050505090806003018054600181600116156101000203166002900480601f016020809104026020016040519081016040528092919081815260200182805460018160011615610100020316600290048015611dfe5780601f10611dd357610100808354040283529160200191611dfe565b820191906000526020600020905b815481529060010190602001808311611de157829003601f168201915b505050505090806004018054600181600116156101000203166002900480601f016020809104026020016040519081016040528092919081815260200182805460018160011615610100020316600290048015611e9c5780601f10611e7157610100808354040283529160200191611e9c565b820191906000526020600020905b815481529060010190602001808311611e7f57829003601f168201915b5050505050905085565b60025481565b6002600a60008381526020019081526020016000206002018190555050565b6060601460008373ffffffffffffffffffffffffffffffffffffffff1673ffffffffffffffffffffffffffffffffffffffff168152602001908152602001600020805480602002602001604051908101604052809291908181526020016000905b82821015611fe8578382906000526020600020018054600181600116156101000203166002900480601f016020809104026020016040519081016040528092919081815260200182805460018160011615610100020316600290048015611fd45780601f10611fa957610100808354040283529160200191611fd4565b820191906000526020600020905b815481529060010190602001808311611fb757829003601f168201915b505050505081526020019060010190611f2c565b505050509050919050565b60026000815480929190600101919050555060405180610120016040528060025481526020018781526020018681526020018581526020016040518060400160405280600581526020017f66616c736500000000000000000000000000000000000000000000000000000081525081526020016040518060400160405280600581526020017f66616c736500000000000000000000000000000000000000000000000000000081525081526020016000815260200160008152602001604051806020016040528060008152508152506007600060025481526020019081526020016000206000820151816000015560208201518160010190805190602001906120fd92919061413c565b50604082015181600201908051906020019061211a92919061413c565b50606082015181600301908051906020019061213792919061413c565b50608082015181600401908051906020019061215492919061413c565b5060a082015181600501908051906020019061217192919061413c565b5060c0820151816006015560e082015181600701556101008201518160080190805190602001906121a392919061413c565b509050503360116000600254815260200190815260200160002060006101000a81548173ffffffffffffffffffffffffffffffffffffffff021916908373ffffffffffffffffffffffffffffffffffffffff1602179055508260166000600254815260200190815260200160002090805190602001906122249291906141bc565b5081601760006002548152602001908152602001600020908051906020019061224e92919061423c565b50604051806060016040528060025481526020016000815260200182815250600f60006002548152602001908152602001600020600082015181600001556020820151816001015560408201518160020155905050505050505050565b60006009600083815260200190815260200160002060010160009054906101000a900473ffffffffffffffffffffffffffffffffffffffff1690506060600960008481526020019081526020016000206003018054600181600116156101000203166002900480601f0160208091040260200160405190810160405280929190818152602001828054600181600116156101000203166002900480156123925780601f1061236757610100808354040283529160200191612392565b820191906000526020600020905b81548152906001019060200180831161237557829003601f168201915b505050505090506000600160096000868152602001908152602001600020600201540190506060600960008681526020019081526020016000206004018054600181600116156101000203166002900480601f0160208091040260200160405190810160405280929190818152602001828054600181600116156101000203166002900480156124635780601f1061243857610100808354040283529160200191612463565b820191906000526020600020905b81548152906001019060200180831161244657829003601f168201915b505050505090506060600960008781526020019081526020016000206005018054600181600116156101000203166002900480601f0160208091040260200160405190810160405280929190818152602001828054600181600116156101000203166002900480156125165780601f106124eb57610100808354040283529160200191612516565b820191906000526020600020905b8154815290600101906020018083116124f957829003601f168201915b505050505090506060600960008881526020019081526020016000206006018054600181600116156101000203166002900480601f0160208091040260200160405190810160405280929190818152602001828054600181600116156101000203166002900480156125c95780601f1061259e576101008083540402835291602001916125c9565b820191906000526020600020905b8154815290600101906020018083116125ac57829003601f168201915b505050505090506040518060e001604052808881526020018773ffffffffffffffffffffffffffffffffffffffff16815260200185815260200186815260200184815260200183815260200182815250600960008981526020019081526020016000206000820151816000015560208201518160010160006101000a81548173ffffffffffffffffffffffffffffffffffffffff021916908373ffffffffffffffffffffffffffffffffffffffff1602179055506040820151816002015560608201518160030190805190602001906126a392919061413c565b5060808201518160040190805190602001906126c092919061413c565b5060a08201518160050190805190602001906126dd92919061413c565b5060c08201518160060190805190602001906126fa92919061413c565b509050506002601560003373ffffffffffffffffffffffffffffffffffffffff1673ffffffffffffffffffffffffffffffffffffffff16815260200190815260200160002060008981526020019081526020016000208190555050505050505050565b6003600081548092919060010191905055506060600860008381526020019081526020016000206001018054600181600116156101000203166002900480601f01602080910402602001604051908101604052809291908181526020018280546001816001161561010002031660029004801561281b5780601f106127f05761010080835404028352916020019161281b565b820191906000526020600020905b8154815290600101906020018083116127fe57829003601f168201915b505050505090506060600860008481526020019081526020016000206002018054600181600116156101000203166002900480601f0160208091040260200160405190810160405280929190818152602001828054600181600116156101000203166002900480156128ce5780601f106128a3576101008083540402835291602001916128ce565b820191906000526020600020905b8154815290600101906020018083116128b157829003601f168201915b505050505090506060600860008581526020019081526020016000206003018054600181600116156101000203166002900480601f0160208091040260200160405190810160405280929190818152602001828054600181600116156101000203166002900480156129815780601f1061295657610100808354040283529160200191612981565b820191906000526020600020905b81548152906001019060200180831161296457829003601f168201915b505050505090506060600860008681526020019081526020016000206004018054600181600116156101000203166002900480601f016020809104026020016040519081016040528092919081815260200182805460018160011615610100020316600290048015612a345780601f10612a0957610100808354040283529160200191612a34565b820191906000526020600020905b815481529060010190602001808311612a1757829003601f168201915b505050505090506060600b60008781526020019081526020016000206001018054600181600116156101000203166002900480601f016020809104026020016040519081016040528092919081815260200182805460018160011615610100020316600290048015612ae75780601f10612abc57610100808354040283529160200191612ae7565b820191906000526020600020905b815481529060010190602001808311612aca57829003601f168201915b505050505090506060600b60008881526020019081526020016000206002018054600181600116156101000203166002900480601f016020809104026020016040519081016040528092919081815260200182805460018160011615610100020316600290048015612b9a5780601f10612b6f57610100808354040283529160200191612b9a565b820191906000526020600020905b815481529060010190602001808311612b7d57829003601f168201915b505050505090506060600c60008981526020019081526020016000206001018054600181600116156101000203166002900480601f016020809104026020016040519081016040528092919081815260200182805460018160011615610100020316600290048015612c4d5780601f10612c2257610100808354040283529160200191612c4d565b820191906000526020600020905b815481529060010190602001808311612c3057829003601f168201915b505050505090506060600c60008a81526020019081526020016000206002018054600181600116156101000203166002900480601f016020809104026020016040519081016040528092919081815260200182805460018160011615610100020316600290048015612d005780601f10612cd557610100808354040283529160200191612d00565b820191906000526020600020905b815481529060010190602001808311612ce357829003601f168201915b505050505090506040518060a00160405280600354815260200189815260200188815260200187815260200186815250600d60006003548152602001908152602001600020600082015181600001556020820151816001019080519060200190612d6b92919061413c565b506040820151816002019080519060200190612d8892919061413c565b506060820151816003019080519060200190612da592919061413c565b506080820151816004019080519060200190612dc292919061413c565b509050506040518060a00160405280600354815260200185815260200184815260200183815260200182815250600e60006003548152602001908152602001600020600082015181600001556020820151816001019080519060200190612e2a92919061413c565b506040820151816002019080519060200190612e4792919061413c565b506060820151816003019080519060200190612e6492919061413c565b506080820151816004019080519060200190612e8192919061413c565b50905050505050505050505050565b60146020528160005260406000208181548110612ea957fe5b90600052602060002001600091509150508054600181600116156101000203166002900480601f016020809104026020016040519081016040528092919081815260200182805460018160011615610100020316600290048015612f4e5780601f10612f2357610100808354040283529160200191612f4e565b820191906000526020600020905b815481529060010190602001808311612f3157829003601f168201915b505050505081565b6007602052806000526040600020600091509050806000015490806001018054600181600116156101000203166002900480601f0160208091040260200160405190810160405280929190818152602001828054600181600116156101000203166002900480156130085780601f10612fdd57610100808354040283529160200191613008565b820191906000526020600020905b815481529060010190602001808311612feb57829003601f168201915b505050505090806002018054600181600116156101000203166002900480601f0160208091040260200160405190810160405280929190818152602001828054600181600116156101000203166002900480156130a65780601f1061307b576101008083540402835291602001916130a6565b820191906000526020600020905b81548152906001019060200180831161308957829003601f168201915b505050505090806003018054600181600116156101000203166002900480601f0160208091040260200160405190810160405280929190818152602001828054600181600116156101000203166002900480156131445780601f1061311957610100808354040283529160200191613144565b820191906000526020600020905b81548152906001019060200180831161312757829003601f168201915b505050505090806004018054600181600116156101000203166002900480601f0160208091040260200160405190810160405280929190818152602001828054600181600116156101000203166002900480156131e25780601f106131b7576101008083540402835291602001916131e2565b820191906000526020600020905b8154815290600101906020018083116131c557829003601f168201915b505050505090806005018054600181600116156101000203166002900480601f0160208091040260200160405190810160405280929190818152602001828054600181600116156101000203166002900480156132805780601f1061325557610100808354040283529160200191613280565b820191906000526020600020905b81548152906001019060200180831161326357829003601f168201915b505050505090806006015490806007015490806008018054600181600116156101000203166002900480601f01602080910402602001604051908101604052809291908181526020018280546001816001161561010002031660029004801561332a5780601f106132ff5761010080835404028352916020019161332a565b820191906000526020600020905b81548152906001019060200180831161330d57829003601f168201915b5050505050905089565b600a6020528060005260406000206000915090508060000154908060010160009054906101000a900473ffffffffffffffffffffffffffffffffffffffff1690806002015490806003018054600181600116156101000203166002900480601f0160208091040260200160405190810160405280929190818152602001828054600181600116156101000203166002900480156134125780601f106133e757610100808354040283529160200191613412565b820191906000526020600020905b8154815290600101906020018083116133f557829003601f168201915b505050505090806004018054600181600116156101000203166002900480601f0160208091040260200160405190810160405280929190818152602001828054600181600116156101000203166002900480156134b05780601f10613485576101008083540402835291602001916134b0565b820191906000526020600020905b81548152906001019060200180831161349357829003601f168201915b505050505090806005018054600181600116156101000203166002900480601f01602080910402602001604051908101604052809291908181526020018280546001816001161561010002031660029004801561354e5780601f106135235761010080835404028352916020019161354e565b820191906000526020600020905b81548152906001019060200180831161353157829003601f168201915b505050505090806006018054600181600116156101000203166002900480601f0160208091040260200160405190810160405280929190818152602001828054600181600116156101000203166002900480156135ec5780601f106135c1576101008083540402835291602001916135ec565b820191906000526020600020905b8154815290600101906020018083116135cf57829003601f168201915b5050505050905087565b600f6020528060005260406000206000915090508060000154908060010154908060020154905083565b60035481565b600b602052806000526040600020600091509050806000015490806001018054600181600116156101000203166002900480601f0160208091040260200160405190810160405280929190818152602001828054600181600116156101000203166002900480156136d85780601f106136ad576101008083540402835291602001916136d8565b820191906000526020600020905b8154815290600101906020018083116136bb57829003601f168201915b505050505090806002018054600181600116156101000203166002900480601f0160208091040260200160405190810160405280929190818152602001828054600181600116156101000203166002900480156137765780601f1061374b57610100808354040283529160200191613776565b820191906000526020600020905b81548152906001019060200180831161375957829003601f168201915b5050505050905083565b60055481565b60166020528060005260406000206000915090508054600181600116156101000203166002900480601f01602080910402602001604051908101604052809291908181526020018280546001816001161561010002031660029004801561382e5780601f106138035761010080835404028352916020019161382e565b820191906000526020600020905b81548152906001019060200180831161381157829003601f168201915b505050505081565b6000601260003373ffffffffffffffffffffffffffffffffffffffff1673ffffffffffffffffffffffffffffffffffffffff1681526020019081526020016000208054600181600116156101000203166002900490501461389657600080fd5b80601260003373ffffffffffffffffffffffffffffffffffffffff1673ffffffffffffffffffffffffffffffffffffffff16815260200190815260200160002090805190602001906138e99291906141bc565b506040516020016138f990614cdb565b60405160208183030381529060405280519060200120816040516020016139209190614cc4565b60405160208183030381529060405280519060200120141561394e5760008081548092919060010191905055505b50565b60015481565b60126020528060005260406000206000915090508054600181600116156101000203166002900480601f0160208091040260200160405190810160405280929190818152602001828054600181600116156101000203166002900480156139ff5780601f106139d4576101008083540402835291602001916139ff565b820191906000526020600020905b8154815290600101906020018083116139e257829003601f168201915b505050505081565b60008090505b8151811015613b1c576000828281518110613a2457fe5b602002602001015190506000848381518110613a3c57fe5b602002602001015190506000600f6000848152602001908152602001600020600101549050600181019050604051806060016040528084815260200182815260200183815250600f60008581526020019081526020016000206000820151816000015560208201518160010155604082015181600201559050506001601060003373ffffffffffffffffffffffffffffffffffffffff1673ffffffffffffffffffffffffffffffffffffffff1681526020019081526020016000206000858152602001908152602001600020819055505050508080600101915050613a0d565b505050565b60176020528160005260406000208181548110613b3a57fe5b90600052602060002001600091509150505481565b6003600081548092919060010191905055506040518060a00160405280600354815260200189815260200188815260200187815260200186815250600d60006003548152602001908152602001600020600082015181600001556020820151816001019080519060200190613bc592919061413c565b506040820151816002019080519060200190613be292919061413c565b506060820151816003019080519060200190613bff92919061413c565b506080820151816004019080519060200190613c1c92919061413c565b509050506040518060a00160405280600354815260200185815260200184815260200183815260200182815250600e60006003548152602001908152602001600020600082015181600001556020820151816001019080519060200190613c8492919061413c565b506040820151816002019080519060200190613ca192919061413c565b506060820151816003019080519060200190613cbe92919061413c565b506080820151816004019080519060200190613cdb92919061413c565b509050505050505050505050565b60096020528060005260406000206000915090508060000154908060010160009054906101000a900473ffffffffffffffffffffffffffffffffffffffff1690806002015490806003018054600181600116156101000203166002900480601f016020809104026020016040519081016040528092919081815260200182805460018160011615610100020316600290048015613dc75780601f10613d9c57610100808354040283529160200191613dc7565b820191906000526020600020905b815481529060010190602001808311613daa57829003601f168201915b505050505090806004018054600181600116156101000203166002900480601f016020809104026020016040519081016040528092919081815260200182805460018160011615610100020316600290048015613e655780601f10613e3a57610100808354040283529160200191613e65565b820191906000526020600020905b815481529060010190602001808311613e4857829003601f168201915b505050505090806005018054600181600116156101000203166002900480601f016020809104026020016040519081016040528092919081815260200182805460018160011615610100020316600290048015613f035780601f10613ed857610100808354040283529160200191613f03565b820191906000526020600020905b815481529060010190602001808311613ee657829003601f168201915b505050505090806006018054600181600116156101000203166002900480601f016020809104026020016040519081016040528092919081815260200182805460018160011615610100020316600290048015613fa15780601f10613f7657610100808354040283529160200191613fa1565b820191906000526020600020905b815481529060010190602001808311613f8457829003601f168201915b5050505050905087565b6001601560003373ffffffffffffffffffffffffffffffffffffffff1673ffffffffffffffffffffffffffffffffffffffff16815260200190815260200160002060008381526020019081526020016000208190555050565b6015602052816000526040600020602052806000526040600020600091509150505481565b80601460003373ffffffffffffffffffffffffffffffffffffffff1673ffffffffffffffffffffffffffffffffffffffff168152602001908152602001600020908051906020019061407c929190614289565b5050565b60045481565b6010602052816000526040600020602052806000526040600020600091509150505481565b60606017600083815260200190815260200160002080548060200260200160405190810160405280929190818152602001828054801561410a57602002820191906000526020600020905b8154815260200190600101908083116140f6575b50505050509050919050565b600660009054906101000a900473ffffffffffffffffffffffffffffffffffffffff1681565b828054600181600116156101000203166002900490600052602060002090601f016020900481019282601f1061417d57805160ff19168380011785556141ab565b828001600101855582156141ab579182015b828111156141aa57825182559160200191906001019061418f565b5b5090506141b891906142e9565b5090565b828054600181600116156101000203166002900490600052602060002090601f016020900481019282601f106141fd57805160ff191683800117855561422b565b8280016001018555821561422b579182015b8281111561422a57825182559160200191906001019061420f565b5b50905061423891906142e9565b5090565b828054828255906000526020600020908101928215614278579160200282015b8281111561427757825182559160200191906001019061425c565b5b50905061428591906142e9565b5090565b8280548282559060005260206000209081019282156142d8579160200282015b828111156142d75782518290805190602001906142c792919061413c565b50916020019190600101906142a9565b5b5090506142e5919061430e565b5090565b61430b91905b808211156143075760008160009055506001016142ef565b5090565b90565b61433791905b80821115614333576000818161432a919061433a565b50600101614314565b5090565b90565b50805460018160011615610100020316600290046000825580601f10614360575061437f565b601f01602090049060005260206000209081019061437e91906142e9565b5b50565b600081359050614391816151d2565b92915050565b600082601f8301126143a857600080fd5b81356143bb6143b682614fe6565b614fb9565b9150818183526020840193506020810190508360005b8381101561440157813586016143e7888261448e565b8452602084019350602083019250506001810190506143d1565b5050505092915050565b600082601f83011261441c57600080fd5b813561442f61442a8261500e565b614fb9565b9150818183526020840193506020810190508385602084028201111561445457600080fd5b60005b83811015614484578161446a8882614536565b845260208401935060208301925050600181019050614457565b5050505092915050565b600082601f83011261449f57600080fd5b81356144b26144ad82615036565b614fb9565b915080825260208301602083018583830111156144ce57600080fd5b6144d983828461517f565b50505092915050565b600082601f8301126144f357600080fd5b813561450661450182615062565b614fb9565b9150808252602083016020830185838301111561452257600080fd5b61452d83828461517f565b50505092915050565b600081359050614545816151e9565b92915050565b60006020828403121561455d57600080fd5b600061456b84828501614382565b91505092915050565b6000806040838503121561458757600080fd5b600061459585828601614382565b92505060206145a685828601614536565b9150509250929050565b6000602082840312156145c257600080fd5b600082013567ffffffffffffffff8111156145dc57600080fd5b6145e884828501614397565b91505092915050565b6000806040838503121561460457600080fd5b600083013567ffffffffffffffff81111561461e57600080fd5b61462a8582860161440b565b925050602083013567ffffffffffffffff81111561464757600080fd5b6146538582860161440b565b9150509250929050565b6000806040838503121561467057600080fd5b600083013567ffffffffffffffff81111561468a57600080fd5b6146968582860161440b565b92505060206146a785828601614536565b9150509250929050565b6000602082840312156146c357600080fd5b600082013567ffffffffffffffff8111156146dd57600080fd5b6146e9848285016144e2565b91505092915050565b6000806040838503121561470557600080fd5b600083013567ffffffffffffffff81111561471f57600080fd5b61472b858286016144e2565b925050602083013567ffffffffffffffff81111561474857600080fd5b614754858286016144e2565b9150509250929050565b60008060008060008060c0878903121561477757600080fd5b600087013567ffffffffffffffff81111561479157600080fd5b61479d89828a016144e2565b965050602087013567ffffffffffffffff8111156147ba57600080fd5b6147c689828a016144e2565b955050604087013567ffffffffffffffff8111156147e357600080fd5b6147ef89828a016144e2565b945050606087013567ffffffffffffffff81111561480c57600080fd5b61481889828a016144e2565b935050608087013567ffffffffffffffff81111561483557600080fd5b61484189828a0161440b565b92505060a061485289828a01614536565b9150509295509295509295565b600080600080600080600080610100898b03121561487c57600080fd5b600089013567ffffffffffffffff81111561489657600080fd5b6148a28b828c016144e2565b985050602089013567ffffffffffffffff8111156148bf57600080fd5b6148cb8b828c016144e2565b975050604089013567ffffffffffffffff8111156148e857600080fd5b6148f48b828c016144e2565b965050606089013567ffffffffffffffff81111561491157600080fd5b61491d8b828c016144e2565b955050608089013567ffffffffffffffff81111561493a57600080fd5b6149468b828c016144e2565b94505060a089013567ffffffffffffffff81111561496357600080fd5b61496f8b828c016144e2565b93505060c089013567ffffffffffffffff81111561498c57600080fd5b6149988b828c016144e2565b92505060e089013567ffffffffffffffff8111156149b557600080fd5b6149c18b828c016144e2565b9150509295985092959890939650565b6000602082840312156149e357600080fd5b60006149f184828501614536565b91505092915050565b600080600060608486031215614a0f57600080fd5b6000614a1d86828701614536565b935050602084013567ffffffffffffffff811115614a3a57600080fd5b614a46868287016144e2565b925050604084013567ffffffffffffffff811115614a6357600080fd5b614a6f868287016144e2565b9150509250925092565b60008060408385031215614a8c57600080fd5b6000614a9a85828601614536565b9250506020614aab85828601614536565b9150509250929050565b6000614ac18383614bf4565b905092915050565b6000614ad58383614ca6565b60208301905092915050565b614aea81615143565b82525050565b6000614afb826150ae565b614b0581856150f4565b935083602082028501614b178561508e565b8060005b85811015614b535784840389528151614b348582614ab5565b9450614b3f836150da565b925060208a01995050600181019050614b1b565b50829750879550505050505092915050565b6000614b70826150b9565b614b7a8185615105565b9350614b858361509e565b8060005b83811015614bb6578151614b9d8882614ac9565b9750614ba8836150e7565b925050600181019050614b89565b5085935050505092915050565b6000614bce826150cf565b614bd88185615138565b9350614be881856020860161518e565b80840191505092915050565b6000614bff826150c4565b614c098185615116565b9350614c1981856020860161518e565b614c22816151c1565b840191505092915050565b6000614c38826150c4565b614c428185615127565b9350614c5281856020860161518e565b614c5b816151c1565b840191505092915050565b6000614c73600183615138565b91507f32000000000000000000000000000000000000000000000000000000000000006000830152600182019050919050565b614caf81615175565b82525050565b614cbe81615175565b82525050565b6000614cd08284614bc3565b915081905092915050565b6000614ce682614c66565b9150819050919050565b6000602082019050614d056000830184614ae1565b92915050565b60006020820190508181036000830152614d258184614af0565b905092915050565b60006020820190508181036000830152614d478184614b65565b905092915050565b60006020820190508181036000830152614d698184614c2d565b905092915050565b6000602082019050614d866000830184614cb5565b92915050565b600060e082019050614da1600083018a614cb5565b614dae6020830189614ae1565b614dbb6040830188614cb5565b8181036060830152614dcd8187614c2d565b90508181036080830152614de18186614c2d565b905081810360a0830152614df58185614c2d565b905081810360c0830152614e098184614c2d565b905098975050505050505050565b6000606082019050614e2c6000830186614cb5565b8181036020830152614e3e8185614c2d565b90508181036040830152614e528184614c2d565b9050949350505050565b600060a082019050614e716000830188614cb5565b8181036020830152614e838187614c2d565b90508181036040830152614e978186614c2d565b90508181036060830152614eab8185614c2d565b90508181036080830152614ebf8184614c2d565b90509695505050505050565b600061012082019050614ee1600083018c614cb5565b8181036020830152614ef3818b614c2d565b90508181036040830152614f07818a614c2d565b90508181036060830152614f1b8189614c2d565b90508181036080830152614f2f8188614c2d565b905081810360a0830152614f438187614c2d565b9050614f5260c0830186614cb5565b614f5f60e0830185614cb5565b818103610100830152614f728184614c2d565b90509a9950505050505050505050565b6000606082019050614f976000830186614cb5565b614fa46020830185614cb5565b614fb16040830184614cb5565b949350505050565b6000604051905081810181811067ffffffffffffffff82111715614fdc57600080fd5b8060405250919050565b600067ffffffffffffffff821115614ffd57600080fd5b602082029050602081019050919050565b600067ffffffffffffffff82111561502557600080fd5b602082029050602081019050919050565b600067ffffffffffffffff82111561504d57600080fd5b601f19601f8301169050602081019050919050565b600067ffffffffffffffff82111561507957600080fd5b601f19601f8301169050602081019050919050565b6000819050602082019050919050565b6000819050602082019050919050565b600081519050919050565b600081519050919050565b600081519050919050565b600081519050919050565b6000602082019050919050565b6000602082019050919050565b600082825260208201905092915050565b600082825260208201905092915050565b600082825260208201905092915050565b600082825260208201905092915050565b600081905092915050565b600061514e82615155565b9050919050565b600073ffffffffffffffffffffffffffffffffffffffff82169050919050565b6000819050919050565b82818337600083830152505050565b60005b838110156151ac578082015181840152602081019050615191565b838111156151bb576000848401525b50505050565b6000601f19601f8301169050919050565b6151db81615143565b81146151e657600080fd5b50565b6151f281615175565b81146151fd57600080fd5b5056fea2646970667358221220983262830120e102c08adde2e28ce0994053622acb6a64a94caf3fffbbbaf0db64736f6c63430006040033",
  "source": "pragma solidity >=0.4.22 <0.8.0;\npragma experimental ABIEncoderV2;\ncontract Robot { \n       uint public supplierCount=0;\n       uint public customerCount=0;\n       uint public totalRobots=0;\n       uint public xsdCount=0;\n       uint public ontologyCount=0;\n\t   uint public ontologiestoadminCount=0;\n\t   \n       address public admin;\n       struct RobotGeneralInformation {\n              uint id;       \n              string purpose1;\n              string purpose2;\n              string robotname;\n              string proposed;\n              string ROAapproved;\n              uint rating;\n              uint totalapproval; \n              string descproposed;                          \n       }\n       mapping(uint => RobotGeneralInformation) public robotgeneralinformations;\n       struct RobotSubjectAtribute {\n              uint id;       \n              string manmachineinterface;\n              string programmingflexibility;\n              string stability;\n              string compliavce;              \n        }\n       mapping(uint => RobotSubjectAtribute) public robotsubjectattributes;\n       struct Ontology {\n              uint id;\n              address proposer;      \n              uint totalapproval; \n              string descproposed; \n\t\t\t  string justification;\n\t\t\t\tstring stdate;\n\t\t\t\tstring enddate;\t\t\t  \n        }\n       mapping(uint => Ontology) public ontology;\n\t   struct OntologyToAdmin {\n              uint id;\n              address proposer;      \n              uint sendtoAll; \n              string descproposed; \n\t\t\t  string justification;\t\n\t\t\t\tstring startdate;\n\t\t\t\tstring enddate;\n        }\n       mapping(uint => OntologyToAdmin) public ontologiestoadmin;\n\t   \n       struct RobotGeneralAtribute {\n              uint id;       \n              string processor;\n              string typeofrobot;                           \n        }\n       mapping(uint => RobotGeneralAtribute) public robotgeneralattributes;\n\n       struct RobotObjectiveAtribute {\n              uint id;       \n              string purchasecode;\n              string deliverytime;                           \n        }\n       mapping(uint => RobotObjectiveAtribute) public robotobjectiveattributes;\n       struct XSDFile1 { \n              uint id;                  \n              string manmachineinterface;\n              string programmingflexibility;\n              string stability;\n              string compliavce;                       \n       }  \n       mapping(uint => XSDFile1) public latestXSDFile1; \n       struct XSDFile2 { \n              uint id;\n              string processor;\n              string typeofrobot;\n              string purchasecode;\n              string deliverytime;               \n       }        \n       mapping(uint => XSDFile2) public latestXSDFile2; \n       struct RoboRating { \n              uint id;\n              uint totalCustomersRated;\n              uint totalRatings;                             \n       }        \n       mapping(uint => RoboRating) public roboratings; \n       mapping(address =>mapping(uint=>uint)) public ratedotnot;\n       mapping(uint => address) public robotowners;\n       mapping(address => string) public roles; \n       mapping(address => string) public rated; \n\tmapping (address => string[]) public interests;\n       mapping(address =>mapping(uint=>uint)) public allproposals;\n\n       mapping(uint=>string) public subjectivedata;\n       mapping(uint=>uint[]) public objectivedata;\n       constructor() public {  \n              admin=msg.sender;    \n       }\n        //function getSbjectiveData (uint _id) public view returns(uint[] memory){\n        //      return subjectivedata[_id];\n       //}\n        function getObjectiveData (uint _id) public view returns(uint[] memory){\n              return objectivedata[_id];\n       }\n\n\t\tfunction addinterests (string [] memory _interest) public {\n\t\t\tinterests[msg.sender]=_interest;\n\t\t}\n\t\tfunction getinterests(address a) public view returns (string [] memory) {\n            return interests[a];\n\t\t}\n       function registerRoles (string memory _role) public {\n              require(bytes(roles[msg.sender]).length==0);\n              roles[msg.sender]=_role;\n              if(keccak256(abi.encodePacked((_role))) == keccak256(abi.encodePacked((\"2\")))){\n                   supplierCount++;  \n              }\n       }\n       function addNewRobot(string memory _p1,string memory _p2,string memory _rname,string memory _sub,uint[] memory _obj,uint _pscore) public {\n              totalRobots++;\n              robotgeneralinformations[totalRobots] =RobotGeneralInformation(totalRobots,_p1,_p2,_rname,\"false\",\"false\",0,0,\"\");            \n              //robotsubjectattributes[totalRobots] =RobotSubjectAtribute(totalRobots,_mm,_pf,_st,_cp);\n              //robotgeneralattributes[totalRobots] =RobotGeneralAtribute(totalRobots,_prc,_type);\n              //robotobjectiveattributes[totalRobots] =RobotObjectiveAtribute(totalRobots,_pc,_pt);\n              robotowners[totalRobots]=msg.sender;\n              subjectivedata[totalRobots]=_sub;\n              objectivedata[totalRobots]=_obj;\n              roboratings[totalRobots]=RoboRating(totalRobots,0,_pscore);\n       }\n       function updateOntology(uint i,string memory _startdate,string memory _enddate) public { \n\t\t\t  address _adr=ontologiestoadmin[i].proposer;\n\t\t\t  string memory _desc=ontologiestoadmin[i].descproposed;\n\t\t\t  string memory _justification=ontologiestoadmin[i].justification;\n\t\t\t  ontologiestoadmin[i].sendtoAll=1;\n\t\t\t  ontologiestoadmin[i].startdate=_startdate;\n\t\t\t  ontologiestoadmin[i].enddate=_enddate;\n              ontologyCount++;\n              ontology[ontologyCount] =Ontology(ontologyCount,_adr,0,_desc,_justification,_startdate,_enddate);        \n       }\n\t    function deleteOntology(uint i) public { \t\t\t  \n\t\t\t  ontologiestoadmin[i].sendtoAll=2  ;                   \n       }\n\t    function updateOntologyToAdmin(string memory _desc,string memory _justification) public { \n              ontologiestoadminCount++;\n              ontologiestoadmin[ontologiestoadminCount] =OntologyToAdmin(ontologiestoadminCount,msg.sender,0,_desc,_justification,\"\",\"\");        \n       }\n       function acceptProposal(uint id) public {\n              address  _proposer=ontology[id].proposer;\n              string memory _desc=ontology[id].descproposed;                          \n              uint totalapproval=ontology[id].totalapproval+1;  \n\t\t\t  \n\t\t\t\tstring memory _justi=ontology[id].justification; \n\t\t\t\tstring memory _stdate=ontology[id].stdate; \n\t\t\t\tstring memory _enddate=ontology[id].enddate;                         \n              ontology[id] =Ontology(id,_proposer,totalapproval,_desc,_justi,_stdate,_enddate);\n              allproposals[msg.sender][id]=2;\n       }\n       function rejectProposal(uint id) public {\n              allproposals[msg.sender][id]=1;\n       }\n       function updateRatings(uint [] memory ratings,uint count) public {                     \n              customerCount++;\n              for(uint id=1;id<=count;id++){\n                     string memory _p1=robotgeneralinformations[id].purpose1;\n                     string memory _p2=robotgeneralinformations[id].purpose2;\n                     string memory _rname=robotgeneralinformations[id].robotname;\n                     string memory _propo=robotgeneralinformations[id].proposed;\n                     string memory _roa=robotgeneralinformations[id].ROAapproved;\n                     uint rating=robotgeneralinformations[id].rating;\n                     rating=rating+ratings[id-1];\n                     uint totalapproval=robotgeneralinformations[id].totalapproval; \n                     string memory _desc=robotgeneralinformations[id].descproposed; \n                     robotgeneralinformations[id] =RobotGeneralInformation(id,_p1,_p2,_rname,_propo,_roa,rating,totalapproval,_desc);\n              }            \n             rated[msg.sender]=\"1\";\n       }\n       function addtoXSDFile(string memory _mm,string memory _pf,string memory _st,string memory _cp,string memory _prc,string memory _type,string memory _pc,string memory _pt) public {\n              xsdCount++;                       \n              latestXSDFile1[xsdCount] =XSDFile1(xsdCount,_mm,_pf,_st,_cp);\n              latestXSDFile2[xsdCount] =XSDFile2(xsdCount,_prc,_type,_pc,_pt);              \n       }\n       function addtoXSDFilebyOntology(uint id) public {\n              xsdCount++; \n              string memory _mm=robotsubjectattributes[id].manmachineinterface;\n              string memory _pf=robotsubjectattributes[id].programmingflexibility;\n              string memory _st=robotsubjectattributes[id].stability;\n              string memory _cm=robotsubjectattributes[id].compliavce;\n              string memory _pr=robotgeneralattributes[id].processor;\n              string memory _type=robotgeneralattributes[id].typeofrobot;\n              string memory _pc=robotobjectiveattributes[id].purchasecode;\n              string memory _dt=robotobjectiveattributes[id].deliverytime;                                       \n              latestXSDFile1[xsdCount] =XSDFile1(xsdCount,_mm,_pf,_st,_cm);\n              latestXSDFile2[xsdCount] =XSDFile2(xsdCount,_pr,_type,_pc,_dt);              \n       }\n       function addRatingsOLD(uint [] memory ratings,uint [] memory robos) public {\n\t       for(uint i=0;i<robos.length;i++){\n                     uint _roboid=robos[i];\n                     uint _rating=ratings[i];\n                     uint rating=roboratings[_roboid].totalRatings;\n                     rating=rating+_rating;\n                     uint totalcust=roboratings[_roboid].totalCustomersRated;\n                     totalcust=totalcust+1;\n                     roboratings[_roboid]=RoboRating(_roboid,totalcust,rating);\n                     ratedotnot[msg.sender][_roboid]=1;\n              }\n       }\n       function addRatings(uint [] memory ratings,uint [] memory robos) public {\n\t       for(uint i=0;i<robos.length;i++){\n                     uint _roboid=robos[i];\n                     uint _rating=ratings[i];\n                     uint totalcust=roboratings[_roboid].totalCustomersRated;\n                     totalcust=totalcust+1;\n                     roboratings[_roboid]=RoboRating(_roboid,totalcust,_rating);\n                     ratedotnot[msg.sender][_roboid]=1;\n              }\n       }\n      \n}",
  "sourcePath": "C:\\xampp\\htdocs\\Robot\\contracts\\Robot.sol",
  "compiler": {
    "name": "solc",
    "version": "0.6.4+commit.1dca32f3.Emscripten.clang"
  },
  "schemaVersion": "3.4.11",
  "updatedAt": "2023-02-05T18:41:04.601Z",
  "networkType": "ethereum",
  "devdoc": {
    "methods": {}
  },
  "userdoc": {
    "methods": {}
  }
}