{
  "contractName": "Robot",
  "abi": [
    {
      "inputs": [],
      "stateMutability": "nonpayable",
      "type": "constructor"
    },
    {
      "inputs": [],
      "name": "admin",
      "outputs": [
        {
          "internalType": "address",
          "name": "",
          "type": "address"
        }
      ],
      "stateMutability": "view",
      "type": "function",
      "constant": true
    },
    {
      "inputs": [
        {
          "internalType": "address",
          "name": "",
          "type": "address"
        },
        {
          "internalType": "uint256",
          "name": "",
          "type": "uint256"
        }
      ],
      "name": "allproposals",
      "outputs": [
        {
          "internalType": "uint256",
          "name": "",
          "type": "uint256"
        }
      ],
      "stateMutability": "view",
      "type": "function",
      "constant": true
    },
    {
      "inputs": [],
      "name": "customerCount",
      "outputs": [
        {
          "internalType": "uint256",
          "name": "",
          "type": "uint256"
        }
      ],
      "stateMutability": "view",
      "type": "function",
      "constant": true
    },
    {
      "inputs": [
        {
          "internalType": "address",
          "name": "",
          "type": "address"
        },
        {
          "internalType": "uint256",
          "name": "",
          "type": "uint256"
        }
      ],
      "name": "interests",
      "outputs": [
        {
          "internalType": "string",
          "name": "",
          "type": "string"
        }
      ],
      "stateMutability": "view",
      "type": "function",
      "constant": true
    },
    {
      "inputs": [
        {
          "internalType": "uint256",
          "name": "",
          "type": "uint256"
        }
      ],
      "name": "latestXSDFile1",
      "outputs": [
        {
          "internalType": "uint256",
          "name": "id",
          "type": "uint256"
        },
        {
          "internalType": "string",
          "name": "manmachineinterface",
          "type": "string"
        },
        {
          "internalType": "string",
          "name": "programmingflexibility",
          "type": "string"
        },
        {
          "internalType": "string",
          "name": "stability",
          "type": "string"
        },
        {
          "internalType": "string",
          "name": "compliavce",
          "type": "string"
        }
      ],
      "stateMutability": "view",
      "type": "function",
      "constant": true
    },
    {
      "inputs": [
        {
          "internalType": "uint256",
          "name": "",
          "type": "uint256"
        }
      ],
      "name": "latestXSDFile2",
      "outputs": [
        {
          "internalType": "uint256",
          "name": "id",
          "type": "uint256"
        },
        {
          "internalType": "string",
          "name": "processor",
          "type": "string"
        },
        {
          "internalType": "string",
          "name": "typeofrobot",
          "type": "string"
        },
        {
          "internalType": "string",
          "name": "purchasecode",
          "type": "string"
        },
        {
          "internalType": "string",
          "name": "deliverytime",
          "type": "string"
        }
      ],
      "stateMutability": "view",
      "type": "function",
      "constant": true
    },
    {
      "inputs": [
        {
          "internalType": "address",
          "name": "",
          "type": "address"
        },
        {
          "internalType": "uint256",
          "name": "",
          "type": "uint256"
        }
      ],
      "name": "multi_ovrall_rated_or_not",
      "outputs": [
        {
          "internalType": "uint256",
          "name": "",
          "type": "uint256"
        }
      ],
      "stateMutability": "view",
      "type": "function",
      "constant": true
    },
    {
      "inputs": [
        {
          "internalType": "address",
          "name": "",
          "type": "address"
        },
        {
          "internalType": "uint256",
          "name": "",
          "type": "uint256"
        }
      ],
      "name": "multi_purpose1_rated_or_not",
      "outputs": [
        {
          "internalType": "uint256",
          "name": "",
          "type": "uint256"
        }
      ],
      "stateMutability": "view",
      "type": "function",
      "constant": true
    },
    {
      "inputs": [
        {
          "internalType": "address",
          "name": "",
          "type": "address"
        },
        {
          "internalType": "uint256",
          "name": "",
          "type": "uint256"
        }
      ],
      "name": "multi_purpose2_rated_or_not",
      "outputs": [
        {
          "internalType": "uint256",
          "name": "",
          "type": "uint256"
        }
      ],
      "stateMutability": "view",
      "type": "function",
      "constant": true
    },
    {
      "inputs": [
        {
          "internalType": "uint256",
          "name": "",
          "type": "uint256"
        },
        {
          "internalType": "uint256",
          "name": "",
          "type": "uint256"
        }
      ],
      "name": "objectivedata",
      "outputs": [
        {
          "internalType": "uint256",
          "name": "",
          "type": "uint256"
        }
      ],
      "stateMutability": "view",
      "type": "function",
      "constant": true
    },
    {
      "inputs": [
        {
          "internalType": "uint256",
          "name": "",
          "type": "uint256"
        }
      ],
      "name": "ontologiestoadmin",
      "outputs": [
        {
          "internalType": "uint256",
          "name": "id",
          "type": "uint256"
        },
        {
          "internalType": "address",
          "name": "proposer",
          "type": "address"
        },
        {
          "internalType": "uint256",
          "name": "sendtoAll",
          "type": "uint256"
        },
        {
          "internalType": "string",
          "name": "descproposed",
          "type": "string"
        },
        {
          "internalType": "string",
          "name": "justification",
          "type": "string"
        },
        {
          "internalType": "string",
          "name": "startdate",
          "type": "string"
        },
        {
          "internalType": "string",
          "name": "enddate",
          "type": "string"
        }
      ],
      "stateMutability": "view",
      "type": "function",
      "constant": true
    },
    {
      "inputs": [],
      "name": "ontologiestoadminCount",
      "outputs": [
        {
          "internalType": "uint256",
          "name": "",
          "type": "uint256"
        }
      ],
      "stateMutability": "view",
      "type": "function",
      "constant": true
    },
    {
      "inputs": [
        {
          "internalType": "uint256",
          "name": "",
          "type": "uint256"
        }
      ],
      "name": "ontology",
      "outputs": [
        {
          "internalType": "uint256",
          "name": "id",
          "type": "uint256"
        },
        {
          "internalType": "address",
          "name": "proposer",
          "type": "address"
        },
        {
          "internalType": "uint256",
          "name": "totalapproval",
          "type": "uint256"
        },
        {
          "internalType": "string",
          "name": "descproposed",
          "type": "string"
        },
        {
          "internalType": "string",
          "name": "justification",
          "type": "string"
        },
        {
          "internalType": "string",
          "name": "stdate",
          "type": "string"
        },
        {
          "internalType": "string",
          "name": "enddate",
          "type": "string"
        }
      ],
      "stateMutability": "view",
      "type": "function",
      "constant": true
    },
    {
      "inputs": [],
      "name": "ontologyCount",
      "outputs": [
        {
          "internalType": "uint256",
          "name": "",
          "type": "uint256"
        }
      ],
      "stateMutability": "view",
      "type": "function",
      "constant": true
    },
    {
      "inputs": [
        {
          "internalType": "address",
          "name": "",
          "type": "address"
        }
      ],
      "name": "rated",
      "outputs": [
        {
          "internalType": "string",
          "name": "",
          "type": "string"
        }
      ],
      "stateMutability": "view",
      "type": "function",
      "constant": true
    },
    {
      "inputs": [
        {
          "internalType": "address",
          "name": "",
          "type": "address"
        },
        {
          "internalType": "uint256",
          "name": "",
          "type": "uint256"
        }
      ],
      "name": "ratedotnot",
      "outputs": [
        {
          "internalType": "uint256",
          "name": "",
          "type": "uint256"
        }
      ],
      "stateMutability": "view",
      "type": "function",
      "constant": true
    },
    {
      "inputs": [
        {
          "internalType": "uint256",
          "name": "",
          "type": "uint256"
        }
      ],
      "name": "roboratings",
      "outputs": [
        {
          "internalType": "uint256",
          "name": "id",
          "type": "uint256"
        },
        {
          "internalType": "uint256",
          "name": "totalCustomersRated",
          "type": "uint256"
        },
        {
          "internalType": "uint256",
          "name": "totalRatings",
          "type": "uint256"
        }
      ],
      "stateMutability": "view",
      "type": "function",
      "constant": true
    },
    {
      "inputs": [
        {
          "internalType": "uint256",
          "name": "",
          "type": "uint256"
        }
      ],
      "name": "robotgeneralattributes",
      "outputs": [
        {
          "internalType": "uint256",
          "name": "id",
          "type": "uint256"
        },
        {
          "internalType": "string",
          "name": "processor",
          "type": "string"
        },
        {
          "internalType": "string",
          "name": "typeofrobot",
          "type": "string"
        }
      ],
      "stateMutability": "view",
      "type": "function",
      "constant": true
    },
    {
      "inputs": [
        {
          "internalType": "uint256",
          "name": "",
          "type": "uint256"
        }
      ],
      "name": "robotgeneralinformations",
      "outputs": [
        {
          "internalType": "uint256",
          "name": "id",
          "type": "uint256"
        },
        {
          "internalType": "string",
          "name": "purpose1",
          "type": "string"
        },
        {
          "internalType": "string",
          "name": "purpose2",
          "type": "string"
        },
        {
          "internalType": "string",
          "name": "robotname",
          "type": "string"
        },
        {
          "internalType": "string",
          "name": "proposed",
          "type": "string"
        },
        {
          "internalType": "string",
          "name": "ROAapproved",
          "type": "string"
        },
        {
          "internalType": "uint256",
          "name": "rating",
          "type": "uint256"
        },
        {
          "internalType": "uint256",
          "name": "totalapproval",
          "type": "uint256"
        },
        {
          "internalType": "string",
          "name": "descproposed",
          "type": "string"
        }
      ],
      "stateMutability": "view",
      "type": "function",
      "constant": true
    },
    {
      "inputs": [
        {
          "internalType": "uint256",
          "name": "",
          "type": "uint256"
        }
      ],
      "name": "robotobjectiveattributes",
      "outputs": [
        {
          "internalType": "uint256",
          "name": "id",
          "type": "uint256"
        },
        {
          "internalType": "string",
          "name": "purchasecode",
          "type": "string"
        },
        {
          "internalType": "string",
          "name": "deliverytime",
          "type": "string"
        }
      ],
      "stateMutability": "view",
      "type": "function",
      "constant": true
    },
    {
      "inputs": [
        {
          "internalType": "uint256",
          "name": "",
          "type": "uint256"
        }
      ],
      "name": "robotowners",
      "outputs": [
        {
          "internalType": "address",
          "name": "",
          "type": "address"
        }
      ],
      "stateMutability": "view",
      "type": "function",
      "constant": true
    },
    {
      "inputs": [
        {
          "internalType": "uint256",
          "name": "",
          "type": "uint256"
        }
      ],
      "name": "robotsubjectattributes",
      "outputs": [
        {
          "internalType": "uint256",
          "name": "id",
          "type": "uint256"
        },
        {
          "internalType": "string",
          "name": "manmachineinterface",
          "type": "string"
        },
        {
          "internalType": "string",
          "name": "programmingflexibility",
          "type": "string"
        },
        {
          "internalType": "string",
          "name": "stability",
          "type": "string"
        },
        {
          "internalType": "string",
          "name": "compliavce",
          "type": "string"
        }
      ],
      "stateMutability": "view",
      "type": "function",
      "constant": true
    },
    {
      "inputs": [
        {
          "internalType": "address",
          "name": "",
          "type": "address"
        }
      ],
      "name": "roles",
      "outputs": [
        {
          "internalType": "string",
          "name": "",
          "type": "string"
        }
      ],
      "stateMutability": "view",
      "type": "function",
      "constant": true
    },
    {
      "inputs": [
        {
          "internalType": "uint256",
          "name": "",
          "type": "uint256"
        }
      ],
      "name": "subjectivedata",
      "outputs": [
        {
          "internalType": "string",
          "name": "",
          "type": "string"
        }
      ],
      "stateMutability": "view",
      "type": "function",
      "constant": true
    },
    {
      "inputs": [],
      "name": "supplierCount",
      "outputs": [
        {
          "internalType": "uint256",
          "name": "",
          "type": "uint256"
        }
      ],
      "stateMutability": "view",
      "type": "function",
      "constant": true
    },
    {
      "inputs": [],
      "name": "totalRobots",
      "outputs": [
        {
          "internalType": "uint256",
          "name": "",
          "type": "uint256"
        }
      ],
      "stateMutability": "view",
      "type": "function",
      "constant": true
    },
    {
      "inputs": [],
      "name": "xsdCount",
      "outputs": [
        {
          "internalType": "uint256",
          "name": "",
          "type": "uint256"
        }
      ],
      "stateMutability": "view",
      "type": "function",
      "constant": true
    },
    {
      "inputs": [
        {
          "internalType": "uint256",
          "name": "_id",
          "type": "uint256"
        }
      ],
      "name": "getObjectiveData",
      "outputs": [
        {
          "internalType": "uint256[]",
          "name": "",
          "type": "uint256[]"
        }
      ],
      "stateMutability": "view",
      "type": "function",
      "constant": true
    },
    {
      "inputs": [
        {
          "internalType": "string[]",
          "name": "_interest",
          "type": "string[]"
        }
      ],
      "name": "addinterests",
      "outputs": [],
      "stateMutability": "nonpayable",
      "type": "function"
    },
    {
      "inputs": [
        {
          "internalType": "address",
          "name": "a",
          "type": "address"
        }
      ],
      "name": "getinterests",
      "outputs": [
        {
          "internalType": "string[]",
          "name": "",
          "type": "string[]"
        }
      ],
      "stateMutability": "view",
      "type": "function",
      "constant": true
    },
    {
      "inputs": [
        {
          "internalType": "string",
          "name": "_role",
          "type": "string"
        }
      ],
      "name": "registerRoles",
      "outputs": [],
      "stateMutability": "nonpayable",
      "type": "function"
    },
    {
      "inputs": [
        {
          "internalType": "string",
          "name": "_p1",
          "type": "string"
        },
        {
          "internalType": "string",
          "name": "_p2",
          "type": "string"
        },
        {
          "internalType": "string",
          "name": "_rname",
          "type": "string"
        },
        {
          "internalType": "string",
          "name": "_sub",
          "type": "string"
        },
        {
          "internalType": "uint256[]",
          "name": "_obj",
          "type": "uint256[]"
        },
        {
          "internalType": "uint256",
          "name": "_pscore",
          "type": "uint256"
        }
      ],
      "name": "addNewRobot",
      "outputs": [],
      "stateMutability": "nonpayable",
      "type": "function"
    },
    {
      "inputs": [
        {
          "internalType": "uint256",
          "name": "i",
          "type": "uint256"
        },
        {
          "internalType": "string",
          "name": "_startdate",
          "type": "string"
        },
        {
          "internalType": "string",
          "name": "_enddate",
          "type": "string"
        }
      ],
      "name": "updateOntology",
      "outputs": [],
      "stateMutability": "nonpayable",
      "type": "function"
    },
    {
      "inputs": [
        {
          "internalType": "uint256",
          "name": "i",
          "type": "uint256"
        }
      ],
      "name": "deleteOntology",
      "outputs": [],
      "stateMutability": "nonpayable",
      "type": "function"
    },
    {
      "inputs": [
        {
          "internalType": "string",
          "name": "_desc",
          "type": "string"
        },
        {
          "internalType": "string",
          "name": "_justification",
          "type": "string"
        }
      ],
      "name": "updateOntologyToAdmin",
      "outputs": [],
      "stateMutability": "nonpayable",
      "type": "function"
    },
    {
      "inputs": [
        {
          "internalType": "uint256",
          "name": "id",
          "type": "uint256"
        }
      ],
      "name": "acceptProposal",
      "outputs": [],
      "stateMutability": "nonpayable",
      "type": "function"
    },
    {
      "inputs": [
        {
          "internalType": "uint256",
          "name": "id",
          "type": "uint256"
        }
      ],
      "name": "rejectProposal",
      "outputs": [],
      "stateMutability": "nonpayable",
      "type": "function"
    },
    {
      "inputs": [
        {
          "internalType": "uint256[]",
          "name": "ratings",
          "type": "uint256[]"
        },
        {
          "internalType": "uint256",
          "name": "count",
          "type": "uint256"
        }
      ],
      "name": "updateRatings",
      "outputs": [],
      "stateMutability": "nonpayable",
      "type": "function"
    },
    {
      "inputs": [
        {
          "internalType": "string",
          "name": "_mm",
          "type": "string"
        },
        {
          "internalType": "string",
          "name": "_pf",
          "type": "string"
        },
        {
          "internalType": "string",
          "name": "_st",
          "type": "string"
        },
        {
          "internalType": "string",
          "name": "_cp",
          "type": "string"
        },
        {
          "internalType": "string",
          "name": "_prc",
          "type": "string"
        },
        {
          "internalType": "string",
          "name": "_type",
          "type": "string"
        },
        {
          "internalType": "string",
          "name": "_pc",
          "type": "string"
        },
        {
          "internalType": "string",
          "name": "_pt",
          "type": "string"
        }
      ],
      "name": "addtoXSDFile",
      "outputs": [],
      "stateMutability": "nonpayable",
      "type": "function"
    },
    {
      "inputs": [
        {
          "internalType": "uint256",
          "name": "id",
          "type": "uint256"
        }
      ],
      "name": "addtoXSDFilebyOntology",
      "outputs": [],
      "stateMutability": "nonpayable",
      "type": "function"
    },
    {
      "inputs": [
        {
          "internalType": "uint256[]",
          "name": "ratings",
          "type": "uint256[]"
        },
        {
          "internalType": "uint256[]",
          "name": "robos",
          "type": "uint256[]"
        }
      ],
      "name": "addRatingsOLD",
      "outputs": [],
      "stateMutability": "nonpayable",
      "type": "function"
    },
    {
      "inputs": [
        {
          "internalType": "uint256[]",
          "name": "ratings",
          "type": "uint256[]"
        },
        {
          "internalType": "uint256[]",
          "name": "robos",
          "type": "uint256[]"
        },
        {
          "internalType": "uint256[]",
          "name": "_puposerated",
          "type": "uint256[]"
        }
      ],
      "name": "addRatings",
      "outputs": [],
      "stateMutability": "nonpayable",
      "type": "function"
    }
  ],
  "bytecode": "0x6080604052600080556000600155600060025560006003556000600455600060055534801561002d57600080fd5b5033600660006101000a81548173ffffffffffffffffffffffffffffffffffffffff021916908373ffffffffffffffffffffffffffffffffffffffff160217905550615564806200007f6000396000f3fe608060405234801561001057600080fd5b506004361061025e5760003560e01c80637b81892811610146578063a3b80c0d116100c3578063cb3cf60e11610087578063cb3cf60e146107ff578063d3768f231461082f578063e2082a831461084b578063e53b226314610869578063f5fdcdf614610899578063f851a440146108c95761025e565b8063a3b80c0d14610731578063b6fec82d14610761578063b90d4e9614610791578063ba5a4eab146107ad578063bc28d878146107e35761025e565b80638f30e9b21161010a5780638f30e9b2146106795780638f9bb7801461069757806395372f09146106c75780639757e8a3146106e357806399374642146107015761025e565b80637b818928146105895780637c85ce16146105c157806386658d1b146105f75780638d5d0939146106295780638ed783e4146106475761025e565b80632b643d93116101df5780634fd7942b116101a35780634fd7942b146104b95780635a84a249146104d55780635f8412021461050557806360c5cc3a146105215780636e879f851461053d578063731c64c0146105595761025e565b80632b643d93146103e75780633ca615581461041b5780634003c8a41461043757806343ee7e39146104675780634c9615701461049b5761025e565b80630f0fde84116102265780630f0fde84146103415780630f6a19441461035d578063140c6b9114610379578063145696ba146103975780632847f4b2146103cb5761025e565b806304f5ea45146102635780630a012a2f146102935780630ad37a9e146102af5780630eb2b87d146102df5780630f09a28214610311575b600080fd5b61027d60048036038101906102789190614cff565b6108e7565b60405161028a919061501e565b60405180910390f35b6102ad60048036038101906102a89190614888565b61091a565b005b6102c960048036038101906102c4919061480b565b610a55565b6040516102d6919061509f565b60405180910390f35b6102f960048036038101906102f49190614cff565b610a7a565b60405161030893929190615145565b60405180910390f35b61032b6004803603810190610326919061480b565b610bd4565b604051610338919061509f565b60405180910390f35b61035b600480360381019061035691906148f4565b610bf9565b005b6103776004803603810190610372919061498b565b610e8a565b005b6103816114f3565b60405161038e919061509f565b60405180910390f35b6103b160048036038101906103ac9190614cff565b6114f9565b6040516103c295949392919061518a565b60405180910390f35b6103e560048036038101906103e09190614a20565b61178f565b005b61040160048036038101906103fc9190614cff565b6118f6565b60405161041295949392919061518a565b60405180910390f35b61043560048036038101906104309190614d28565b611b8c565b005b610451600480360381019061044c91906147e2565b611eec565b60405161045e919061507d565b60405180910390f35b610481600480360381019061047c9190614cff565b611f9c565b60405161049295949392919061518a565b60405180910390f35b6104a3612232565b6040516104b0919061509f565b60405180910390f35b6104d360048036038101906104ce9190614cff565b612238565b005b6104ef60048036038101906104ea91906147e2565b612257565b6040516104fc9190615039565b60405180910390f35b61051f600480360381019061051a9190614a8c565b61237f565b005b61053b60048036038101906105369190614cff565b612637565b005b61055760048036038101906105529190614cff565b612ae9565b005b610573600480360381019061056e919061480b565b61321c565b604051610580919061507d565b60405180910390f35b6105a3600480360381019061059e9190614cff565b6132e2565b6040516105b8999897969594939291906151f9565b60405180910390f35b6105db60048036038101906105d69190614cff565b6136c0565b6040516105ee97969594939291906150ba565b60405180910390f35b610611600480360381019061060c9190614cff565b613982565b604051610620939291906152b0565b60405180910390f35b6106316139ac565b60405161063e919061509f565b60405180910390f35b610661600480360381019061065c9190614cff565b6139b2565b60405161067093929190615145565b60405180910390f35b610681613b0c565b60405161068e919061509f565b60405180910390f35b6106b160048036038101906106ac9190614cff565b613b12565b6040516106be919061507d565b60405180910390f35b6106e160048036038101906106dc91906149df565b613bc2565b005b6106eb613cdd565b6040516106f8919061509f565b60405180910390f35b61071b600480360381019061071691906147e2565b613ce3565b604051610728919061507d565b60405180910390f35b61074b6004803603810190610746919061480b565b613d93565b604051610758919061509f565b60405180910390f35b61077b60048036038101906107769190614da7565b613db8565b604051610788919061509f565b60405180910390f35b6107ab60048036038101906107a69190614b8d565b613de6565b005b6107c760048036038101906107c29190614cff565b613f80565b6040516107da97969594939291906150ba565b60405180910390f35b6107fd60048036038101906107f89190614cff565b614242565b005b6108196004803603810190610814919061480b565b61429b565b604051610826919061509f565b60405180910390f35b61084960048036038101906108449190614847565b6142c0565b005b610853614317565b604051610860919061509f565b60405180910390f35b610883600480360381019061087e919061480b565b61431d565b604051610890919061509f565b60405180910390f35b6108b360048036038101906108ae9190614cff565b614342565b6040516108c0919061505b565b60405180910390f35b6108d16143ad565b6040516108de919061501e565b60405180910390f35b60146020528060005260406000206000915054906101000a900473ffffffffffffffffffffffffffffffffffffffff1681565b60008090505b8151811015610a5057600082828151811061093757fe5b60200260200101519050600084838151811061094f57fe5b602002602001015190506000600f600084815260200190815260200160002060020154905081810190506000600f6000858152602001908152602001600020600101549050600181019050604051806060016040528085815260200182815260200183815250600f60008681526020019081526020016000206000820151816000015560208201518160010155604082015181600201559050506001601060003373ffffffffffffffffffffffffffffffffffffffff1673ffffffffffffffffffffffffffffffffffffffff168152602001908152602001600020600086815260200190815260200160002081905550505050508080600101915050610920565b505050565b6012602052816000526040600020602052806000526040600020600091509150505481565b600c602052806000526040600020600091509050806000015490806001018054600181600116156101000203166002900480601f016020809104026020016040519081016040528092919081815260200182805460018160011615610100020316600290048015610b2c5780601f10610b0157610100808354040283529160200191610b2c565b820191906000526020600020905b815481529060010190602001808311610b0f57829003601f168201915b505050505090806002018054600181600116156101000203166002900480601f016020809104026020016040519081016040528092919081815260200182805460018160011615610100020316600290048015610bca5780601f10610b9f57610100808354040283529160200191610bca565b820191906000526020600020905b815481529060010190602001808311610bad57829003601f168201915b5050505050905083565b6013602052816000526040600020602052806000526040600020600091509150505481565b60008090505b8251811015610e84576000838281518110610c1657fe5b602002602001015190506000858381518110610c2e57fe5b602002602001015190506000600f6000848152602001908152602001600020600101549050600181019050604051806060016040528084815260200182815260200183815250600f6000858152602001908152602001600020600082015181600001556020820151816001015560408201518160020155905050600a858581518110610cb657fe5b60200260200101511415610d1b576001601060003373ffffffffffffffffffffffffffffffffffffffff1673ffffffffffffffffffffffffffffffffffffffff1681526020019081526020016000206000858152602001908152602001600020819055505b6000858581518110610d2957fe5b60200260200101511415610d8e576001601160003373ffffffffffffffffffffffffffffffffffffffff1673ffffffffffffffffffffffffffffffffffffffff1681526020019081526020016000206000858152602001908152602001600020819055505b6001858581518110610d9c57fe5b60200260200101511415610e01576001601260003373ffffffffffffffffffffffffffffffffffffffff1673ffffffffffffffffffffffffffffffffffffffff1681526020019081526020016000206000858152602001908152602001600020819055505b6002858581518110610e0f57fe5b60200260200101511415610e74576001601360003373ffffffffffffffffffffffffffffffffffffffff1673ffffffffffffffffffffffffffffffffffffffff1681526020019081526020016000206000858152602001908152602001600020819055505b5050508080600101915050610bff565b50505050565b6001600081548092919060010191905055506000600190505b818111611465576060600760008381526020019081526020016000206001018054600181600116156101000203166002900480601f016020809104026020016040519081016040528092919081815260200182805460018160011615610100020316600290048015610f565780601f10610f2b57610100808354040283529160200191610f56565b820191906000526020600020905b815481529060010190602001808311610f3957829003601f168201915b505050505090506060600760008481526020019081526020016000206002018054600181600116156101000203166002900480601f0160208091040260200160405190810160405280929190818152602001828054600181600116156101000203166002900480156110095780601f10610fde57610100808354040283529160200191611009565b820191906000526020600020905b815481529060010190602001808311610fec57829003601f168201915b505050505090506060600760008581526020019081526020016000206003018054600181600116156101000203166002900480601f0160208091040260200160405190810160405280929190818152602001828054600181600116156101000203166002900480156110bc5780601f10611091576101008083540402835291602001916110bc565b820191906000526020600020905b81548152906001019060200180831161109f57829003601f168201915b505050505090506060600760008681526020019081526020016000206004018054600181600116156101000203166002900480601f01602080910402602001604051908101604052809291908181526020018280546001816001161561010002031660029004801561116f5780601f106111445761010080835404028352916020019161116f565b820191906000526020600020905b81548152906001019060200180831161115257829003601f168201915b505050505090506060600760008781526020019081526020016000206005018054600181600116156101000203166002900480601f0160208091040260200160405190810160405280929190818152602001828054600181600116156101000203166002900480156112225780601f106111f757610100808354040283529160200191611222565b820191906000526020600020905b81548152906001019060200180831161120557829003601f168201915b5050505050905060006007600088815260200190815260200160002060060154905088600188038151811061125357fe5b6020026020010151810190506000600760008981526020019081526020016000206007015490506060600760008a81526020019081526020016000206008018054600181600116156101000203166002900480601f0160208091040260200160405190810160405280929190818152602001828054600181600116156101000203166002900480156113265780601f106112fb57610100808354040283529160200191611326565b820191906000526020600020905b81548152906001019060200180831161130957829003601f168201915b505050505090506040518061012001604052808a815260200189815260200188815260200187815260200186815260200185815260200184815260200183815260200182815250600760008b81526020019081526020016000206000820151816000015560208201518160010190805190602001906113a69291906143d3565b5060408201518160020190805190602001906113c39291906143d3565b5060608201518160030190805190602001906113e09291906143d3565b5060808201518160040190805190602001906113fd9291906143d3565b5060a082015181600501908051906020019061141a9291906143d3565b5060c0820151816006015560e0820151816007015561010082015181600801908051906020019061144c9291906143d3565b5090505050505050505050508080600101915050610ea3565b506040518060400160405280600181526020017f3100000000000000000000000000000000000000000000000000000000000000815250601660003373ffffffffffffffffffffffffffffffffffffffff1673ffffffffffffffffffffffffffffffffffffffff16815260200190815260200160002090805190602001906114ee929190614453565b505050565b60005481565b600d602052806000526040600020600091509050806000015490806001018054600181600116156101000203166002900480601f0160208091040260200160405190810160405280929190818152602001828054600181600116156101000203166002900480156115ab5780601f10611580576101008083540402835291602001916115ab565b820191906000526020600020905b81548152906001019060200180831161158e57829003601f168201915b505050505090806002018054600181600116156101000203166002900480601f0160208091040260200160405190810160405280929190818152602001828054600181600116156101000203166002900480156116495780601f1061161e57610100808354040283529160200191611649565b820191906000526020600020905b81548152906001019060200180831161162c57829003601f168201915b505050505090806003018054600181600116156101000203166002900480601f0160208091040260200160405190810160405280929190818152602001828054600181600116156101000203166002900480156116e75780601f106116bc576101008083540402835291602001916116e7565b820191906000526020600020905b8154815290600101906020018083116116ca57829003601f168201915b505050505090806004018054600181600116156101000203166002900480601f0160208091040260200160405190810160405280929190818152602001828054600181600116156101000203166002900480156117855780601f1061175a57610100808354040283529160200191611785565b820191906000526020600020905b81548152906001019060200180831161176857829003601f168201915b5050505050905085565b6005600081548092919060010191905055506040518060e0016040528060055481526020013373ffffffffffffffffffffffffffffffffffffffff1681526020016000815260200183815260200182815260200160405180602001604052806000815250815260200160405180602001604052806000815250815250600a600060055481526020019081526020016000206000820151816000015560208201518160010160006101000a81548173ffffffffffffffffffffffffffffffffffffffff021916908373ffffffffffffffffffffffffffffffffffffffff1602179055506040820151816002015560608201518160030190805190602001906118979291906143d3565b5060808201518160040190805190602001906118b49291906143d3565b5060a08201518160050190805190602001906118d19291906143d3565b5060c08201518160060190805190602001906118ee9291906143d3565b509050505050565b600e602052806000526040600020600091509050806000015490806001018054600181600116156101000203166002900480601f0160208091040260200160405190810160405280929190818152602001828054600181600116156101000203166002900480156119a85780601f1061197d576101008083540402835291602001916119a8565b820191906000526020600020905b81548152906001019060200180831161198b57829003601f168201915b505050505090806002018054600181600116156101000203166002900480601f016020809104026020016040519081016040528092919081815260200182805460018160011615610100020316600290048015611a465780601f10611a1b57610100808354040283529160200191611a46565b820191906000526020600020905b815481529060010190602001808311611a2957829003601f168201915b505050505090806003018054600181600116156101000203166002900480601f016020809104026020016040519081016040528092919081815260200182805460018160011615610100020316600290048015611ae45780601f10611ab957610100808354040283529160200191611ae4565b820191906000526020600020905b815481529060010190602001808311611ac757829003601f168201915b505050505090806004018054600181600116156101000203166002900480601f016020809104026020016040519081016040528092919081815260200182805460018160011615610100020316600290048015611b825780601f10611b5757610100808354040283529160200191611b82565b820191906000526020600020905b815481529060010190602001808311611b6557829003601f168201915b5050505050905085565b6000600a600085815260200190815260200160002060010160009054906101000a900473ffffffffffffffffffffffffffffffffffffffff1690506060600a60008681526020019081526020016000206003018054600181600116156101000203166002900480601f016020809104026020016040519081016040528092919081815260200182805460018160011615610100020316600290048015611c735780601f10611c4857610100808354040283529160200191611c73565b820191906000526020600020905b815481529060010190602001808311611c5657829003601f168201915b505050505090506060600a60008781526020019081526020016000206004018054600181600116156101000203166002900480601f016020809104026020016040519081016040528092919081815260200182805460018160011615610100020316600290048015611d265780601f10611cfb57610100808354040283529160200191611d26565b820191906000526020600020905b815481529060010190602001808311611d0957829003601f168201915b505050505090506001600a60008881526020019081526020016000206002018190555084600a60008881526020019081526020016000206005019080519060200190611d73929190614453565b5083600a60008881526020019081526020016000206006019080519060200190611d9e929190614453565b506004600081548092919060010191905055506040518060e0016040528060045481526020018473ffffffffffffffffffffffffffffffffffffffff16815260200160008152602001838152602001828152602001868152602001858152506009600060045481526020019081526020016000206000820151816000015560208201518160010160006101000a81548173ffffffffffffffffffffffffffffffffffffffff021916908373ffffffffffffffffffffffffffffffffffffffff160217905550604082015181600201556060820151816003019080519060200190611e899291906143d3565b506080820151816004019080519060200190611ea69291906143d3565b5060a0820151816005019080519060200190611ec39291906143d3565b5060c0820151816006019080519060200190611ee09291906143d3565b50905050505050505050565b60166020528060005260406000206000915090508054600181600116156101000203166002900480601f016020809104026020016040519081016040528092919081815260200182805460018160011615610100020316600290048015611f945780601f10611f6957610100808354040283529160200191611f94565b820191906000526020600020905b815481529060010190602001808311611f7757829003601f168201915b505050505081565b6008602052806000526040600020600091509050806000015490806001018054600181600116156101000203166002900480601f01602080910402602001604051908101604052809291908181526020018280546001816001161561010002031660029004801561204e5780601f106120235761010080835404028352916020019161204e565b820191906000526020600020905b81548152906001019060200180831161203157829003601f168201915b505050505090806002018054600181600116156101000203166002900480601f0160208091040260200160405190810160405280929190818152602001828054600181600116156101000203166002900480156120ec5780601f106120c1576101008083540402835291602001916120ec565b820191906000526020600020905b8154815290600101906020018083116120cf57829003601f168201915b505050505090806003018054600181600116156101000203166002900480601f01602080910402602001604051908101604052809291908181526020018280546001816001161561010002031660029004801561218a5780601f1061215f5761010080835404028352916020019161218a565b820191906000526020600020905b81548152906001019060200180831161216d57829003601f168201915b505050505090806004018054600181600116156101000203166002900480601f0160208091040260200160405190810160405280929190818152602001828054600181600116156101000203166002900480156122285780601f106121fd57610100808354040283529160200191612228565b820191906000526020600020905b81548152906001019060200180831161220b57829003601f168201915b5050505050905085565b60025481565b6002600a60008381526020019081526020016000206002018190555050565b6060601760008373ffffffffffffffffffffffffffffffffffffffff1673ffffffffffffffffffffffffffffffffffffffff168152602001908152602001600020805480602002602001604051908101604052809291908181526020016000905b82821015612374578382906000526020600020018054600181600116156101000203166002900480601f0160208091040260200160405190810160405280929190818152602001828054600181600116156101000203166002900480156123605780601f1061233557610100808354040283529160200191612360565b820191906000526020600020905b81548152906001019060200180831161234357829003601f168201915b5050505050815260200190600101906122b8565b505050509050919050565b60026000815480929190600101919050555060405180610120016040528060025481526020018781526020018681526020018581526020016040518060400160405280600581526020017f66616c736500000000000000000000000000000000000000000000000000000081525081526020016040518060400160405280600581526020017f66616c736500000000000000000000000000000000000000000000000000000081525081526020016000815260200160008152602001604051806020016040528060008152508152506007600060025481526020019081526020016000206000820151816000015560208201518160010190805190602001906124899291906143d3565b5060408201518160020190805190602001906124a69291906143d3565b5060608201518160030190805190602001906124c39291906143d3565b5060808201518160040190805190602001906124e09291906143d3565b5060a08201518160050190805190602001906124fd9291906143d3565b5060c0820151816006015560e0820151816007015561010082015181600801908051906020019061252f9291906143d3565b509050503360146000600254815260200190815260200160002060006101000a81548173ffffffffffffffffffffffffffffffffffffffff021916908373ffffffffffffffffffffffffffffffffffffffff1602179055508260196000600254815260200190815260200160002090805190602001906125b0929190614453565b5081601a6000600254815260200190815260200160002090805190602001906125da9291906144d3565b50604051806060016040528060025481526020016000815260200182815250600f60006002548152602001908152602001600020600082015181600001556020820151816001015560408201518160020155905050505050505050565b60006009600083815260200190815260200160002060010160009054906101000a900473ffffffffffffffffffffffffffffffffffffffff1690506060600960008481526020019081526020016000206003018054600181600116156101000203166002900480601f01602080910402602001604051908101604052809291908181526020018280546001816001161561010002031660029004801561271e5780601f106126f35761010080835404028352916020019161271e565b820191906000526020600020905b81548152906001019060200180831161270157829003601f168201915b505050505090506000600160096000868152602001908152602001600020600201540190506060600960008681526020019081526020016000206004018054600181600116156101000203166002900480601f0160208091040260200160405190810160405280929190818152602001828054600181600116156101000203166002900480156127ef5780601f106127c4576101008083540402835291602001916127ef565b820191906000526020600020905b8154815290600101906020018083116127d257829003601f168201915b505050505090506060600960008781526020019081526020016000206005018054600181600116156101000203166002900480601f0160208091040260200160405190810160405280929190818152602001828054600181600116156101000203166002900480156128a25780601f10612877576101008083540402835291602001916128a2565b820191906000526020600020905b81548152906001019060200180831161288557829003601f168201915b505050505090506060600960008881526020019081526020016000206006018054600181600116156101000203166002900480601f0160208091040260200160405190810160405280929190818152602001828054600181600116156101000203166002900480156129555780601f1061292a57610100808354040283529160200191612955565b820191906000526020600020905b81548152906001019060200180831161293857829003601f168201915b505050505090506040518060e001604052808881526020018773ffffffffffffffffffffffffffffffffffffffff16815260200185815260200186815260200184815260200183815260200182815250600960008981526020019081526020016000206000820151816000015560208201518160010160006101000a81548173ffffffffffffffffffffffffffffffffffffffff021916908373ffffffffffffffffffffffffffffffffffffffff160217905550604082015181600201556060820151816003019080519060200190612a2f9291906143d3565b506080820151816004019080519060200190612a4c9291906143d3565b5060a0820151816005019080519060200190612a699291906143d3565b5060c0820151816006019080519060200190612a869291906143d3565b509050506002601860003373ffffffffffffffffffffffffffffffffffffffff1673ffffffffffffffffffffffffffffffffffffffff16815260200190815260200160002060008981526020019081526020016000208190555050505050505050565b6003600081548092919060010191905055506060600860008381526020019081526020016000206001018054600181600116156101000203166002900480601f016020809104026020016040519081016040528092919081815260200182805460018160011615610100020316600290048015612ba75780601f10612b7c57610100808354040283529160200191612ba7565b820191906000526020600020905b815481529060010190602001808311612b8a57829003601f168201915b505050505090506060600860008481526020019081526020016000206002018054600181600116156101000203166002900480601f016020809104026020016040519081016040528092919081815260200182805460018160011615610100020316600290048015612c5a5780601f10612c2f57610100808354040283529160200191612c5a565b820191906000526020600020905b815481529060010190602001808311612c3d57829003601f168201915b505050505090506060600860008581526020019081526020016000206003018054600181600116156101000203166002900480601f016020809104026020016040519081016040528092919081815260200182805460018160011615610100020316600290048015612d0d5780601f10612ce257610100808354040283529160200191612d0d565b820191906000526020600020905b815481529060010190602001808311612cf057829003601f168201915b505050505090506060600860008681526020019081526020016000206004018054600181600116156101000203166002900480601f016020809104026020016040519081016040528092919081815260200182805460018160011615610100020316600290048015612dc05780601f10612d9557610100808354040283529160200191612dc0565b820191906000526020600020905b815481529060010190602001808311612da357829003601f168201915b505050505090506060600b60008781526020019081526020016000206001018054600181600116156101000203166002900480601f016020809104026020016040519081016040528092919081815260200182805460018160011615610100020316600290048015612e735780601f10612e4857610100808354040283529160200191612e73565b820191906000526020600020905b815481529060010190602001808311612e5657829003601f168201915b505050505090506060600b60008881526020019081526020016000206002018054600181600116156101000203166002900480601f016020809104026020016040519081016040528092919081815260200182805460018160011615610100020316600290048015612f265780601f10612efb57610100808354040283529160200191612f26565b820191906000526020600020905b815481529060010190602001808311612f0957829003601f168201915b505050505090506060600c60008981526020019081526020016000206001018054600181600116156101000203166002900480601f016020809104026020016040519081016040528092919081815260200182805460018160011615610100020316600290048015612fd95780601f10612fae57610100808354040283529160200191612fd9565b820191906000526020600020905b815481529060010190602001808311612fbc57829003601f168201915b505050505090506060600c60008a81526020019081526020016000206002018054600181600116156101000203166002900480601f01602080910402602001604051908101604052809291908181526020018280546001816001161561010002031660029004801561308c5780601f106130615761010080835404028352916020019161308c565b820191906000526020600020905b81548152906001019060200180831161306f57829003601f168201915b505050505090506040518060a00160405280600354815260200189815260200188815260200187815260200186815250600d600060035481526020019081526020016000206000820151816000015560208201518160010190805190602001906130f79291906143d3565b5060408201518160020190805190602001906131149291906143d3565b5060608201518160030190805190602001906131319291906143d3565b50608082015181600401908051906020019061314e9291906143d3565b509050506040518060a00160405280600354815260200185815260200184815260200183815260200182815250600e600060035481526020019081526020016000206000820151816000015560208201518160010190805190602001906131b69291906143d3565b5060408201518160020190805190602001906131d39291906143d3565b5060608201518160030190805190602001906131f09291906143d3565b50608082015181600401908051906020019061320d9291906143d3565b50905050505050505050505050565b6017602052816000526040600020818154811061323557fe5b90600052602060002001600091509150508054600181600116156101000203166002900480601f0160208091040260200160405190810160405280929190818152602001828054600181600116156101000203166002900480156132da5780601f106132af576101008083540402835291602001916132da565b820191906000526020600020905b8154815290600101906020018083116132bd57829003601f168201915b505050505081565b6007602052806000526040600020600091509050806000015490806001018054600181600116156101000203166002900480601f0160208091040260200160405190810160405280929190818152602001828054600181600116156101000203166002900480156133945780601f1061336957610100808354040283529160200191613394565b820191906000526020600020905b81548152906001019060200180831161337757829003601f168201915b505050505090806002018054600181600116156101000203166002900480601f0160208091040260200160405190810160405280929190818152602001828054600181600116156101000203166002900480156134325780601f1061340757610100808354040283529160200191613432565b820191906000526020600020905b81548152906001019060200180831161341557829003601f168201915b505050505090806003018054600181600116156101000203166002900480601f0160208091040260200160405190810160405280929190818152602001828054600181600116156101000203166002900480156134d05780601f106134a5576101008083540402835291602001916134d0565b820191906000526020600020905b8154815290600101906020018083116134b357829003601f168201915b505050505090806004018054600181600116156101000203166002900480601f01602080910402602001604051908101604052809291908181526020018280546001816001161561010002031660029004801561356e5780601f106135435761010080835404028352916020019161356e565b820191906000526020600020905b81548152906001019060200180831161355157829003601f168201915b505050505090806005018054600181600116156101000203166002900480601f01602080910402602001604051908101604052809291908181526020018280546001816001161561010002031660029004801561360c5780601f106135e15761010080835404028352916020019161360c565b820191906000526020600020905b8154815290600101906020018083116135ef57829003601f168201915b505050505090806006015490806007015490806008018054600181600116156101000203166002900480601f0160208091040260200160405190810160405280929190818152602001828054600181600116156101000203166002900480156136b65780601f1061368b576101008083540402835291602001916136b6565b820191906000526020600020905b81548152906001019060200180831161369957829003601f168201915b5050505050905089565b600a6020528060005260406000206000915090508060000154908060010160009054906101000a900473ffffffffffffffffffffffffffffffffffffffff1690806002015490806003018054600181600116156101000203166002900480601f01602080910402602001604051908101604052809291908181526020018280546001816001161561010002031660029004801561379e5780601f106137735761010080835404028352916020019161379e565b820191906000526020600020905b81548152906001019060200180831161378157829003601f168201915b505050505090806004018054600181600116156101000203166002900480601f01602080910402602001604051908101604052809291908181526020018280546001816001161561010002031660029004801561383c5780601f106138115761010080835404028352916020019161383c565b820191906000526020600020905b81548152906001019060200180831161381f57829003601f168201915b505050505090806005018054600181600116156101000203166002900480601f0160208091040260200160405190810160405280929190818152602001828054600181600116156101000203166002900480156138da5780601f106138af576101008083540402835291602001916138da565b820191906000526020600020905b8154815290600101906020018083116138bd57829003601f168201915b505050505090806006018054600181600116156101000203166002900480601f0160208091040260200160405190810160405280929190818152602001828054600181600116156101000203166002900480156139785780601f1061394d57610100808354040283529160200191613978565b820191906000526020600020905b81548152906001019060200180831161395b57829003601f168201915b5050505050905087565b600f6020528060005260406000206000915090508060000154908060010154908060020154905083565b60035481565b600b602052806000526040600020600091509050806000015490806001018054600181600116156101000203166002900480601f016020809104026020016040519081016040528092919081815260200182805460018160011615610100020316600290048015613a645780601f10613a3957610100808354040283529160200191613a64565b820191906000526020600020905b815481529060010190602001808311613a4757829003601f168201915b505050505090806002018054600181600116156101000203166002900480601f016020809104026020016040519081016040528092919081815260200182805460018160011615610100020316600290048015613b025780601f10613ad757610100808354040283529160200191613b02565b820191906000526020600020905b815481529060010190602001808311613ae557829003601f168201915b5050505050905083565b60055481565b60196020528060005260406000206000915090508054600181600116156101000203166002900480601f016020809104026020016040519081016040528092919081815260200182805460018160011615610100020316600290048015613bba5780601f10613b8f57610100808354040283529160200191613bba565b820191906000526020600020905b815481529060010190602001808311613b9d57829003601f168201915b505050505081565b6000601560003373ffffffffffffffffffffffffffffffffffffffff1673ffffffffffffffffffffffffffffffffffffffff16815260200190815260200160002080546001816001161561010002031660029004905014613c2257600080fd5b80601560003373ffffffffffffffffffffffffffffffffffffffff1673ffffffffffffffffffffffffffffffffffffffff1681526020019081526020016000209080519060200190613c75929190614453565b50604051602001613c8590615009565b6040516020818303038152906040528051906020012081604051602001613cac9190614ff2565b604051602081830303815290604052805190602001201415613cda5760008081548092919060010191905055505b50565b60015481565b60156020528060005260406000206000915090508054600181600116156101000203166002900480601f016020809104026020016040519081016040528092919081815260200182805460018160011615610100020316600290048015613d8b5780601f10613d6057610100808354040283529160200191613d8b565b820191906000526020600020905b815481529060010190602001808311613d6e57829003601f168201915b505050505081565b6011602052816000526040600020602052806000526040600020600091509150505481565b601a6020528160005260406000208181548110613dd157fe5b90600052602060002001600091509150505481565b6003600081548092919060010191905055506040518060a00160405280600354815260200189815260200188815260200187815260200186815250600d60006003548152602001908152602001600020600082015181600001556020820151816001019080519060200190613e5c9291906143d3565b506040820151816002019080519060200190613e799291906143d3565b506060820151816003019080519060200190613e969291906143d3565b506080820151816004019080519060200190613eb39291906143d3565b509050506040518060a00160405280600354815260200185815260200184815260200183815260200182815250600e60006003548152602001908152602001600020600082015181600001556020820151816001019080519060200190613f1b9291906143d3565b506040820151816002019080519060200190613f389291906143d3565b506060820151816003019080519060200190613f559291906143d3565b506080820151816004019080519060200190613f729291906143d3565b509050505050505050505050565b60096020528060005260406000206000915090508060000154908060010160009054906101000a900473ffffffffffffffffffffffffffffffffffffffff1690806002015490806003018054600181600116156101000203166002900480601f01602080910402602001604051908101604052809291908181526020018280546001816001161561010002031660029004801561405e5780601f106140335761010080835404028352916020019161405e565b820191906000526020600020905b81548152906001019060200180831161404157829003601f168201915b505050505090806004018054600181600116156101000203166002900480601f0160208091040260200160405190810160405280929190818152602001828054600181600116156101000203166002900480156140fc5780601f106140d1576101008083540402835291602001916140fc565b820191906000526020600020905b8154815290600101906020018083116140df57829003601f168201915b505050505090806005018054600181600116156101000203166002900480601f01602080910402602001604051908101604052809291908181526020018280546001816001161561010002031660029004801561419a5780601f1061416f5761010080835404028352916020019161419a565b820191906000526020600020905b81548152906001019060200180831161417d57829003601f168201915b505050505090806006018054600181600116156101000203166002900480601f0160208091040260200160405190810160405280929190818152602001828054600181600116156101000203166002900480156142385780601f1061420d57610100808354040283529160200191614238565b820191906000526020600020905b81548152906001019060200180831161421b57829003601f168201915b5050505050905087565b6001601860003373ffffffffffffffffffffffffffffffffffffffff1673ffffffffffffffffffffffffffffffffffffffff16815260200190815260200160002060008381526020019081526020016000208190555050565b6018602052816000526040600020602052806000526040600020600091509150505481565b80601760003373ffffffffffffffffffffffffffffffffffffffff1673ffffffffffffffffffffffffffffffffffffffff1681526020019081526020016000209080519060200190614313929190614520565b5050565b60045481565b6010602052816000526040600020602052806000526040600020600091509150505481565b6060601a60008381526020019081526020016000208054806020026020016040519081016040528092919081815260200182805480156143a157602002820191906000526020600020905b81548152602001906001019080831161438d575b50505050509050919050565b600660009054906101000a900473ffffffffffffffffffffffffffffffffffffffff1681565b828054600181600116156101000203166002900490600052602060002090601f016020900481019282601f1061441457805160ff1916838001178555614442565b82800160010185558215614442579182015b82811115614441578251825591602001919060010190614426565b5b50905061444f9190614580565b5090565b828054600181600116156101000203166002900490600052602060002090601f016020900481019282601f1061449457805160ff19168380011785556144c2565b828001600101855582156144c2579182015b828111156144c15782518255916020019190600101906144a6565b5b5090506144cf9190614580565b5090565b82805482825590600052602060002090810192821561450f579160200282015b8281111561450e5782518255916020019190600101906144f3565b5b50905061451c9190614580565b5090565b82805482825590600052602060002090810192821561456f579160200282015b8281111561456e57825182908051906020019061455e9291906143d3565b5091602001919060010190614540565b5b50905061457c91906145a5565b5090565b6145a291905b8082111561459e576000816000905550600101614586565b5090565b90565b6145ce91905b808211156145ca57600081816145c191906145d1565b506001016145ab565b5090565b90565b50805460018160011615610100020316600290046000825580601f106145f75750614616565b601f0160209004906000526020600020908101906146159190614580565b5b50565b60008135905061462881615500565b92915050565b600082601f83011261463f57600080fd5b813561465261464d82615314565b6152e7565b9150818183526020840193506020810190508360005b83811015614698578135860161467e8882614725565b845260208401935060208301925050600181019050614668565b5050505092915050565b600082601f8301126146b357600080fd5b81356146c66146c18261533c565b6152e7565b915081818352602084019350602081019050838560208402820111156146eb57600080fd5b60005b8381101561471b578161470188826147cd565b8452602084019350602083019250506001810190506146ee565b5050505092915050565b600082601f83011261473657600080fd5b813561474961474482615364565b6152e7565b9150808252602083016020830185838301111561476557600080fd5b6147708382846154ad565b50505092915050565b600082601f83011261478a57600080fd5b813561479d61479882615390565b6152e7565b915080825260208301602083018583830111156147b957600080fd5b6147c48382846154ad565b50505092915050565b6000813590506147dc81615517565b92915050565b6000602082840312156147f457600080fd5b600061480284828501614619565b91505092915050565b6000806040838503121561481e57600080fd5b600061482c85828601614619565b925050602061483d858286016147cd565b9150509250929050565b60006020828403121561485957600080fd5b600082013567ffffffffffffffff81111561487357600080fd5b61487f8482850161462e565b91505092915050565b6000806040838503121561489b57600080fd5b600083013567ffffffffffffffff8111156148b557600080fd5b6148c1858286016146a2565b925050602083013567ffffffffffffffff8111156148de57600080fd5b6148ea858286016146a2565b9150509250929050565b60008060006060848603121561490957600080fd5b600084013567ffffffffffffffff81111561492357600080fd5b61492f868287016146a2565b935050602084013567ffffffffffffffff81111561494c57600080fd5b614958868287016146a2565b925050604084013567ffffffffffffffff81111561497557600080fd5b614981868287016146a2565b9150509250925092565b6000806040838503121561499e57600080fd5b600083013567ffffffffffffffff8111156149b857600080fd5b6149c4858286016146a2565b92505060206149d5858286016147cd565b9150509250929050565b6000602082840312156149f157600080fd5b600082013567ffffffffffffffff811115614a0b57600080fd5b614a1784828501614779565b91505092915050565b60008060408385031215614a3357600080fd5b600083013567ffffffffffffffff811115614a4d57600080fd5b614a5985828601614779565b925050602083013567ffffffffffffffff811115614a7657600080fd5b614a8285828601614779565b9150509250929050565b60008060008060008060c08789031215614aa557600080fd5b600087013567ffffffffffffffff811115614abf57600080fd5b614acb89828a01614779565b965050602087013567ffffffffffffffff811115614ae857600080fd5b614af489828a01614779565b955050604087013567ffffffffffffffff811115614b1157600080fd5b614b1d89828a01614779565b945050606087013567ffffffffffffffff811115614b3a57600080fd5b614b4689828a01614779565b935050608087013567ffffffffffffffff811115614b6357600080fd5b614b6f89828a016146a2565b92505060a0614b8089828a016147cd565b9150509295509295509295565b600080600080600080600080610100898b031215614baa57600080fd5b600089013567ffffffffffffffff811115614bc457600080fd5b614bd08b828c01614779565b985050602089013567ffffffffffffffff811115614bed57600080fd5b614bf98b828c01614779565b975050604089013567ffffffffffffffff811115614c1657600080fd5b614c228b828c01614779565b965050606089013567ffffffffffffffff811115614c3f57600080fd5b614c4b8b828c01614779565b955050608089013567ffffffffffffffff811115614c6857600080fd5b614c748b828c01614779565b94505060a089013567ffffffffffffffff811115614c9157600080fd5b614c9d8b828c01614779565b93505060c089013567ffffffffffffffff811115614cba57600080fd5b614cc68b828c01614779565b92505060e089013567ffffffffffffffff811115614ce357600080fd5b614cef8b828c01614779565b9150509295985092959890939650565b600060208284031215614d1157600080fd5b6000614d1f848285016147cd565b91505092915050565b600080600060608486031215614d3d57600080fd5b6000614d4b868287016147cd565b935050602084013567ffffffffffffffff811115614d6857600080fd5b614d7486828701614779565b925050604084013567ffffffffffffffff811115614d9157600080fd5b614d9d86828701614779565b9150509250925092565b60008060408385031215614dba57600080fd5b6000614dc8858286016147cd565b9250506020614dd9858286016147cd565b9150509250929050565b6000614def8383614f22565b905092915050565b6000614e038383614fd4565b60208301905092915050565b614e1881615471565b82525050565b6000614e29826153dc565b614e338185615422565b935083602082028501614e45856153bc565b8060005b85811015614e815784840389528151614e628582614de3565b9450614e6d83615408565b925060208a01995050600181019050614e49565b50829750879550505050505092915050565b6000614e9e826153e7565b614ea88185615433565b9350614eb3836153cc565b8060005b83811015614ee4578151614ecb8882614df7565b9750614ed683615415565b925050600181019050614eb7565b5085935050505092915050565b6000614efc826153fd565b614f068185615466565b9350614f168185602086016154bc565b80840191505092915050565b6000614f2d826153f2565b614f378185615444565b9350614f478185602086016154bc565b614f50816154ef565b840191505092915050565b6000614f66826153f2565b614f708185615455565b9350614f808185602086016154bc565b614f89816154ef565b840191505092915050565b6000614fa1600183615466565b91507f32000000000000000000000000000000000000000000000000000000000000006000830152600182019050919050565b614fdd816154a3565b82525050565b614fec816154a3565b82525050565b6000614ffe8284614ef1565b915081905092915050565b600061501482614f94565b9150819050919050565b60006020820190506150336000830184614e0f565b92915050565b600060208201905081810360008301526150538184614e1e565b905092915050565b600060208201905081810360008301526150758184614e93565b905092915050565b600060208201905081810360008301526150978184614f5b565b905092915050565b60006020820190506150b46000830184614fe3565b92915050565b600060e0820190506150cf600083018a614fe3565b6150dc6020830189614e0f565b6150e96040830188614fe3565b81810360608301526150fb8187614f5b565b9050818103608083015261510f8186614f5b565b905081810360a08301526151238185614f5b565b905081810360c08301526151378184614f5b565b905098975050505050505050565b600060608201905061515a6000830186614fe3565b818103602083015261516c8185614f5b565b905081810360408301526151808184614f5b565b9050949350505050565b600060a08201905061519f6000830188614fe3565b81810360208301526151b18187614f5b565b905081810360408301526151c58186614f5b565b905081810360608301526151d98185614f5b565b905081810360808301526151ed8184614f5b565b90509695505050505050565b60006101208201905061520f600083018c614fe3565b8181036020830152615221818b614f5b565b90508181036040830152615235818a614f5b565b905081810360608301526152498189614f5b565b9050818103608083015261525d8188614f5b565b905081810360a08301526152718187614f5b565b905061528060c0830186614fe3565b61528d60e0830185614fe3565b8181036101008301526152a08184614f5b565b90509a9950505050505050505050565b60006060820190506152c56000830186614fe3565b6152d26020830185614fe3565b6152df6040830184614fe3565b949350505050565b6000604051905081810181811067ffffffffffffffff8211171561530a57600080fd5b8060405250919050565b600067ffffffffffffffff82111561532b57600080fd5b602082029050602081019050919050565b600067ffffffffffffffff82111561535357600080fd5b602082029050602081019050919050565b600067ffffffffffffffff82111561537b57600080fd5b601f19601f8301169050602081019050919050565b600067ffffffffffffffff8211156153a757600080fd5b601f19601f8301169050602081019050919050565b6000819050602082019050919050565b6000819050602082019050919050565b600081519050919050565b600081519050919050565b600081519050919050565b600081519050919050565b6000602082019050919050565b6000602082019050919050565b600082825260208201905092915050565b600082825260208201905092915050565b600082825260208201905092915050565b600082825260208201905092915050565b600081905092915050565b600061547c82615483565b9050919050565b600073ffffffffffffffffffffffffffffffffffffffff82169050919050565b6000819050919050565b82818337600083830152505050565b60005b838110156154da5780820151818401526020810190506154bf565b838111156154e9576000848401525b50505050565b6000601f19601f8301169050919050565b61550981615471565b811461551457600080fd5b50565b615520816154a3565b811461552b57600080fd5b5056fea264697066735822122072c90f9d0cbfe6d7faf56f056fe6f9b94458350315dcf174f471e0f098d0298364736f6c63430006040033",
  "source": "pragma solidity >=0.4.22 <0.8.0;\npragma experimental ABIEncoderV2;\ncontract Robot { \n       uint public supplierCount=0;\n       uint public customerCount=0;\n       uint public totalRobots=0;\n       uint public xsdCount=0;\n       uint public ontologyCount=0;\n\t   uint public ontologiestoadminCount=0;\n\t   \n       address public admin;\n       struct RobotGeneralInformation {\n              uint id;       \n              string purpose1;\n              string purpose2;\n              string robotname;\n              string proposed;\n              string ROAapproved;\n              uint rating;\n              uint totalapproval; \n              string descproposed;                          \n       }\n       mapping(uint => RobotGeneralInformation) public robotgeneralinformations;\n       struct RobotSubjectAtribute {\n              uint id;       \n              string manmachineinterface;\n              string programmingflexibility;\n              string stability;\n              string compliavce;              \n        }\n       mapping(uint => RobotSubjectAtribute) public robotsubjectattributes;\n       struct Ontology {\n              uint id;\n              address proposer;      \n              uint totalapproval; \n              string descproposed; \n\t\t\t  string justification;\n\t\t\t\tstring stdate;\n\t\t\t\tstring enddate;\t\t\t  \n        }\n       mapping(uint => Ontology) public ontology;\n\t   struct OntologyToAdmin {\n              uint id;\n              address proposer;      \n              uint sendtoAll; \n              string descproposed; \n\t\t\t  string justification;\t\n\t\t\t\tstring startdate;\n\t\t\t\tstring enddate;\n        }\n       mapping(uint => OntologyToAdmin) public ontologiestoadmin;\n\t   \n       struct RobotGeneralAtribute {\n              uint id;       \n              string processor;\n              string typeofrobot;                           \n        }\n       mapping(uint => RobotGeneralAtribute) public robotgeneralattributes;\n\n       struct RobotObjectiveAtribute {\n              uint id;       \n              string purchasecode;\n              string deliverytime;                           \n        }\n       mapping(uint => RobotObjectiveAtribute) public robotobjectiveattributes;\n       struct XSDFile1 { \n              uint id;                  \n              string manmachineinterface;\n              string programmingflexibility;\n              string stability;\n              string compliavce;                       \n       }  \n       mapping(uint => XSDFile1) public latestXSDFile1; \n       struct XSDFile2 { \n              uint id;\n              string processor;\n              string typeofrobot;\n              string purchasecode;\n              string deliverytime;               \n       }        \n       mapping(uint => XSDFile2) public latestXSDFile2; \n       struct RoboRating { \n              uint id;\n              uint totalCustomersRated;\n              uint totalRatings;                             \n       }        \n       mapping(uint => RoboRating) public roboratings; \n       mapping(address =>mapping(uint=>uint)) public ratedotnot;\n       mapping(address =>mapping(uint=>uint)) public multi_ovrall_rated_or_not;\n       mapping(address =>mapping(uint=>uint)) public multi_purpose1_rated_or_not;\n       mapping(address =>mapping(uint=>uint)) public multi_purpose2_rated_or_not;\n       mapping(uint => address) public robotowners;\n       mapping(address => string) public roles; \n       mapping(address => string) public rated; \n\tmapping (address => string[]) public interests;\n       mapping(address =>mapping(uint=>uint)) public allproposals;\n\n       mapping(uint=>string) public subjectivedata;\n       mapping(uint=>uint[]) public objectivedata;\n       constructor() public {  \n              admin=msg.sender;    \n       }\n        //function getSbjectiveData (uint _id) public view returns(uint[] memory){\n        //      return subjectivedata[_id];\n       //}\n        function getObjectiveData (uint _id) public view returns(uint[] memory){\n              return objectivedata[_id];\n       }\n\n\t\tfunction addinterests (string [] memory _interest) public {\n\t\t\tinterests[msg.sender]=_interest;\n\t\t}\n\t\tfunction getinterests(address a) public view returns (string [] memory) {\n            return interests[a];\n\t\t}\n       function registerRoles (string memory _role) public {\n              require(bytes(roles[msg.sender]).length==0);\n              roles[msg.sender]=_role;\n              if(keccak256(abi.encodePacked((_role))) == keccak256(abi.encodePacked((\"2\")))){\n                   supplierCount++;  \n              }\n       }\n       function addNewRobot(string memory _p1,string memory _p2,string memory _rname,string memory _sub,uint[] memory _obj,uint _pscore) public {\n              totalRobots++;\n              robotgeneralinformations[totalRobots] =RobotGeneralInformation(totalRobots,_p1,_p2,_rname,\"false\",\"false\",0,0,\"\");            \n              //robotsubjectattributes[totalRobots] =RobotSubjectAtribute(totalRobots,_mm,_pf,_st,_cp);\n              //robotgeneralattributes[totalRobots] =RobotGeneralAtribute(totalRobots,_prc,_type);\n              //robotobjectiveattributes[totalRobots] =RobotObjectiveAtribute(totalRobots,_pc,_pt);\n              robotowners[totalRobots]=msg.sender;\n              subjectivedata[totalRobots]=_sub;\n              objectivedata[totalRobots]=_obj;\n              roboratings[totalRobots]=RoboRating(totalRobots,0,_pscore);\n       }\n       function updateOntology(uint i,string memory _startdate,string memory _enddate) public { \n\t\t\t  address _adr=ontologiestoadmin[i].proposer;\n\t\t\t  string memory _desc=ontologiestoadmin[i].descproposed;\n\t\t\t  string memory _justification=ontologiestoadmin[i].justification;\n\t\t\t  ontologiestoadmin[i].sendtoAll=1;\n\t\t\t  ontologiestoadmin[i].startdate=_startdate;\n\t\t\t  ontologiestoadmin[i].enddate=_enddate;\n              ontologyCount++;\n              ontology[ontologyCount] =Ontology(ontologyCount,_adr,0,_desc,_justification,_startdate,_enddate);        \n       }\n\t    function deleteOntology(uint i) public { \t\t\t  \n\t\t\t  ontologiestoadmin[i].sendtoAll=2  ;                   \n       }\n\t    function updateOntologyToAdmin(string memory _desc,string memory _justification) public { \n              ontologiestoadminCount++;\n              ontologiestoadmin[ontologiestoadminCount] =OntologyToAdmin(ontologiestoadminCount,msg.sender,0,_desc,_justification,\"\",\"\");        \n       }\n       function acceptProposal(uint id) public {\n              address  _proposer=ontology[id].proposer;\n              string memory _desc=ontology[id].descproposed;                          \n              uint totalapproval=ontology[id].totalapproval+1;  \n\t\t\t  \n\t\t\t\tstring memory _justi=ontology[id].justification; \n\t\t\t\tstring memory _stdate=ontology[id].stdate; \n\t\t\t\tstring memory _enddate=ontology[id].enddate;                         \n              ontology[id] =Ontology(id,_proposer,totalapproval,_desc,_justi,_stdate,_enddate);\n              allproposals[msg.sender][id]=2;\n       }\n       function rejectProposal(uint id) public {\n              allproposals[msg.sender][id]=1;\n       }\n       function updateRatings(uint [] memory ratings,uint count) public {                     \n              customerCount++;\n              for(uint id=1;id<=count;id++){\n                     string memory _p1=robotgeneralinformations[id].purpose1;\n                     string memory _p2=robotgeneralinformations[id].purpose2;\n                     string memory _rname=robotgeneralinformations[id].robotname;\n                     string memory _propo=robotgeneralinformations[id].proposed;\n                     string memory _roa=robotgeneralinformations[id].ROAapproved;\n                     uint rating=robotgeneralinformations[id].rating;\n                     rating=rating+ratings[id-1];\n                     uint totalapproval=robotgeneralinformations[id].totalapproval; \n                     string memory _desc=robotgeneralinformations[id].descproposed; \n                     robotgeneralinformations[id] =RobotGeneralInformation(id,_p1,_p2,_rname,_propo,_roa,rating,totalapproval,_desc);\n              }            \n             rated[msg.sender]=\"1\";\n       }\n       function addtoXSDFile(string memory _mm,string memory _pf,string memory _st,string memory _cp,string memory _prc,string memory _type,string memory _pc,string memory _pt) public {\n              xsdCount++;                       \n              latestXSDFile1[xsdCount] =XSDFile1(xsdCount,_mm,_pf,_st,_cp);\n              latestXSDFile2[xsdCount] =XSDFile2(xsdCount,_prc,_type,_pc,_pt);              \n       }\n       function addtoXSDFilebyOntology(uint id) public {\n              xsdCount++; \n              string memory _mm=robotsubjectattributes[id].manmachineinterface;\n              string memory _pf=robotsubjectattributes[id].programmingflexibility;\n              string memory _st=robotsubjectattributes[id].stability;\n              string memory _cm=robotsubjectattributes[id].compliavce;\n              string memory _pr=robotgeneralattributes[id].processor;\n              string memory _type=robotgeneralattributes[id].typeofrobot;\n              string memory _pc=robotobjectiveattributes[id].purchasecode;\n              string memory _dt=robotobjectiveattributes[id].deliverytime;                                       \n              latestXSDFile1[xsdCount] =XSDFile1(xsdCount,_mm,_pf,_st,_cm);\n              latestXSDFile2[xsdCount] =XSDFile2(xsdCount,_pr,_type,_pc,_dt);              \n       }\n       function addRatingsOLD(uint [] memory ratings,uint [] memory robos) public {\n\t       for(uint i=0;i<robos.length;i++){\n                     uint _roboid=robos[i];\n                     uint _rating=ratings[i];\n                     uint rating=roboratings[_roboid].totalRatings;\n                     rating=rating+_rating;\n                     uint totalcust=roboratings[_roboid].totalCustomersRated;\n                     totalcust=totalcust+1;\n                     roboratings[_roboid]=RoboRating(_roboid,totalcust,rating);\n                     ratedotnot[msg.sender][_roboid]=1;\n              }\n       }\n       function addRatings(uint [] memory ratings,uint [] memory robos,uint [] memory _puposerated) public {\n\t       for(uint i=0;i<robos.length;i++){\n                     uint _roboid=robos[i];\n                     uint _rating=ratings[i];\n                     uint totalcust=roboratings[_roboid].totalCustomersRated;\n                     totalcust=totalcust+1;\n                     roboratings[_roboid]=RoboRating(_roboid,totalcust,_rating);\n                     if(_puposerated[i]==10){\n                            ratedotnot[msg.sender][_roboid]=1;\n                     }\n                     if(_puposerated[i]==0){\n                            multi_ovrall_rated_or_not[msg.sender][_roboid]=1;\n                     }\n                     if(_puposerated[i]==1){\n                           multi_purpose1_rated_or_not[msg.sender][_roboid]=1;\n                     }\n                     if(_puposerated[i]==2){\n                           multi_purpose2_rated_or_not[msg.sender][_roboid]=1;\n                     }\n              }\n       }\n      \n}",
  "sourcePath": "C:\\xampp\\htdocs\\Robot\\contracts\\Robot.sol",
  "compiler": {
    "name": "solc",
    "version": "0.6.4+commit.1dca32f3.Emscripten.clang"
  },
  "schemaVersion": "3.4.11",
  "updatedAt": "2023-02-26T18:42:44.054Z",
  "networkType": "ethereum",
  "devdoc": {
    "methods": {}
  },
  "userdoc": {
    "methods": {}
  }
}